:100000000C9499000C94C1000C94C1000C94C10094
:100010000C94C1000C94C1000C94C1000C94C1005C
:100020000C94C1000C94C1000C94C1000C94C1004C
:100030000C94C1000C94C1000C94C1000C94C1003C
:100040000C94B81F0C94C1000C949F1A0C94ED1AD8
:100050000C94C1000C94C1000C94C1000C94C1001C
:100060000C94C1000C94C10008000000BE92244909
:10007000123EABAAAA2ABECDCCCC4C3E00000080DA
:10008000BEABAAAAAA3E00000000BF000000803F4D
:100090000000000000084178D3BB4387D1133D190D
:1000A0000E3CC3BD4282AD2B3E68EC8276BED98F3A
:1000B000E1A93E4C80EFFFBE01C4FF7F3F0000007E
:1000C000000000000000240027002A0000000000BB
:1000D000250028002B000000000023002600290036
:1000E00004040404040404040202020202020303DE
:1000F00003030303010204081020408001020408E6
:100100001020010204081020000000070002010076
:100110000003040600000000000000003A027F0413
:10012000BD0789088B09AC0BBC11E017591CBB1C1F
:10013000B60711241FBECFEFD8E0DEBFCDBF12E05F
:10014000A0E0B1E0E2E7F9E402C005900D92A43F1F
:10015000B107D9F715E0A4EFB2E001C01D92AC38A9
:10016000B107E1F711E0C0E3D1E004C02297FE013E
:100170000E947124CC31D107C9F70E94341D0C9420
:10018000AC240C940000CF93DF93BC018230910526
:1001900010F462E070E0A0918A05B0918B05ED014A
:1001A000E0E0F0E040E050E021C0888199818617CE
:1001B000970769F48A819B81309719F09383828332
:1001C00004C090938B0580938A05FE0134C06817A4
:1001D000790738F44115510519F08417950708F48B
:1001E000AC01FE018A819B819C01E9012097E9F61F
:1001F00041155105A9F1CA01861B970B049708F414
:10020000BA01E0E0F0E02AC08D919C91119784172B
:100210009507F9F46417750781F412968D919C91F6
:100220001397309719F09383828304C090938B05C2
:1002300080938A05FD0132964CC0CA01861B970B3C
:10024000FD01E80FF91F6193719302978D939C93C1
:1002500040C0FD01828193819C01D9011097A1F6D4
:100260008091880590918905892B41F480917502D0
:10027000909176029093890580938805409177024A
:10028000509178024115510541F44DB75EB7809108
:10029000730290917402481B590B2091880530918C
:1002A0008905CA01821B930B8617970780F0AB0163
:1002B0004E5F5F4F8417950750F0420F531F5093C6
:1002C000890540938805F9016193719302C0E0E0CC
:1002D000F0E0CF01DF91CF910895CF93DF930097A6
:1002E00009F450C0EC0122971B821A82A0918A0562
:1002F000B0918B05109709F140E050E0AC17BD07B5
:1003000008F1BB83AA83FE0121913191E20FF31F13
:10031000AE17BF0779F48D919C911197280F391F63
:100320002E5F3F4F3983288312968D919C911397AE
:100330009B838A834115510571F4D0938B05C0933B
:100340008A0520C012968D919C911397AD0100975C
:1003500011F0DC01D3CFFA01D383C2832191319113
:10036000E20FF31FCE17DF0769F488819981280F08
:10037000391F2E5F3F4FFA01318320838A819B8191
:1003800093838283DF91CF910895A0E0B0E0EBECFE
:10039000F1E00C947D24EC01A880B980CA80DB8058
:1003A000A114B104C104D10441F484E2A82E89ED62
:1003B000B82E8BE5C82E87E0D82EC601B5012DE1F9
:1003C00033EF41E050E00E94542427EA31E440E05A
:1003D00050E00E9413247B018C01C601B5012DE180
:1003E00033EF41E050E00E945424CA01B9012CEEE1
:1003F00034EF4FEF5FEF0E9413246E0D7F1D801FBF
:10040000911F97FF04C061507040804090486883FE
:1004100079838A839B839B01AC015F77B901CA0111
:10042000CDB7DEB7EAE00C9499240E94C501089587
:1004300089E792E00E94C501089560937902709364
:100440007A0280937B0290937C020895FB01DC0189
:1004500004C08D910190801921F441505040C8F79B
:10046000881B990B0895FB01DC0101900D9200207F
:10047000E1F708950F9384EF92E060E040E020E020
:1004800000E00E94AF1C0F9108959C0118161906F8
:1004900074F4B901882777FD8095982F0E947822FF
:1004A0000E942C230E944522862F8F5F089500977B
:1004B00011F481E0089566277727681B790B882758
:1004C00077FD8095982F0E9478220E942C230E940D
:1004D0004522862F8E5F0895CF92DF92EF92FF9292
:1004E0000F931F937B018C01C42E20E030E040E08D
:1004F00050E00E94D921D82EDD1CDD24DD1CD394D0
:10050000C801B7010E944522CB0177FF03C0909537
:1005100081959F4F0E944502C80E8C2D8D0D1F9115
:100520000F91FF90EF90DF90CF9008952F923F9220
:100530004F925F926F927F928F929F92AF92BF92F3
:10054000CF92DF92EF92FF920F931F93DF93CF939F
:10055000CDB7DEB728970FB6F894DEBF0FBECDBF7C
:100560009A8389837C836B8339014A0117012801AF
:10057000AD82BE82CF82D8866C0182E090E0C80E48
:10058000D91EC60160E071E040E550E00E94F10A2A
:10059000892B11F410E063C18B819C810E9445027C
:1005A000182FC401B30142E050E00E946C02E82E13
:1005B000C201B10142E050E00E946C02F82E6D8150
:1005C0007E818F81988542E050E00E946C02082F66
:1005D0006D8D7E8D8F8D98A142E050E00E946C025F
:1005E0001E0D1E571F0D100F180F89819A810E9432
:1005F0008A04C601612F4AE050E00E944A1EC601EB
:1006000061E171E00E94A51FC6010E94891DC6011B
:1006100063E271E00E94BB1EC60165E271E00E94C8
:10062000BB1EC60161E371E00E94BB1EC6016B8167
:100630007C814AE050E00E94A81EC6016DE371E093
:100640000E94BB1EC60161E471E00E94BB1EC60190
:1006500061E371E00E94BB1EC601B401A30122E068
:1006600030E00E94A21FC6016DE371E00E94BB1E34
:10067000C6016DE471E00E94BB1EC60161E371E03A
:100680000E94BB1EC601B201A10122E030E00E941F
:10069000A21FC6016DE371E00E94BB1EC6016AE5A0
:1006A00071E00E94BB1EC60161E371E00E94BB1EA7
:1006B000C6014D815E816F81788522E030E00E9425
:1006C000A21FC6016DE371E00E94BB1EC60168E671
:1006D00071E00E94BB1EC60161E371E00E94BB1E77
:1006E000C6014D8D5E8D6F8D78A122E030E00E94B5
:1006F000A21FC60164E771E00E94BB1EC60167E746
:1007000071E00E94A51F87E595E0612F4AE050E067
:100710000E944A1E87E595E061E171E00E94A51FF5
:1007200087E595E00E94891D87E595E063E271E029
:100730000E94BB1E87E595E065E271E00E94BB1E4A
:1007400087E595E061E371E00E94BB1E87E595E0D7
:100750006B817C814AE050E00E94A81E87E595E00D
:100760006DE371E00E94BB1E87E595E061E471E0F6
:100770000E94BB1E87E595E061E371E00E94BB1E0D
:1007800087E595E0B401A30122E030E00E94A21FBA
:1007900087E595E06DE371E00E94BB1E87E595E07B
:1007A0006DE471E00E94BB1E87E595E061E371E0B6
:1007B0000E94BB1E87E595E0B201A10122E030E076
:1007C0000E94A21F87E595E06DE371E00E94BB1EC9
:1007D00087E595E06AE571E00E94BB1E87E595E03C
:1007E00061E371E00E94BB1E87E595E04D815E816B
:1007F0006F81788522E030E00E94A21F87E595E0B6
:100800006DE371E00E94BB1E87E595E068E671E04C
:100810000E94BB1E87E595E061E371E00E94BB1E6C
:1008200087E595E04D8D5E8D6F8D78A122E030E0FB
:100830000E94A21F87E595E064E771E00E94BB1E5D
:1008400087E595E067E771E00E94A51F87E595E0E1
:100850000E94891D87E595E00E94891D11E0C6016F
:100860000E94C709812F28960FB6F894DEBF0FBEED
:10087000CDBFCF91DF911F910F91FF90EF90DF904F
:10088000CF90BF90AF909F908F907F906F905F9030
:100890004F903F902F900895FC0183E892E0918360
:1008A0008083CF010E94730408950F931F938C01DE
:1008B00083E892E0F80191838083C8010E94730469
:1008C000C8010E94511D1F910F9108950F931F930E
:1008D0008C010E943F0583E892E0F80191838083B8
:1008E0001F910F910895FC018BE892E09183808322
:1008F0000895FC018BE892E09183808308950F9323
:100900008AEF92E060E040E020E000E00E94AF1C4F
:100910000F9108952F923F924F925F926F927F9224
:100920008F929F92AF92BF92CF92DF92EF92FF92FF
:100930000F931F937C018C010E5F1F4F59E7252EEB
:1009400051E0352EC801B1010E94BB1EF70161893B
:100950007289C8010E94BB1E4DE9442E41E0542E0D
:10096000C801B2010E94A51F37EA632E31E0732E41
:10097000C801B3010E94BB1EF70167857089C801D9
:100980000E94A51F21EB822E21E0922EC801B40106
:100990000E94A51F98ECA92E91E0B92EC801B501BF
:1009A0000E94A51F88EDC82E81E0D82EC801B6018F
:1009B0000E94BB1E07E515E0C801B1010E94BB1EE5
:1009C000F70161897289C8010E94BB1EC801B2018A
:1009D0000E94A51FC801B3010E94BB1EF7016785D5
:1009E0007089C8010E94A51FC801B4010E94A51FFB
:1009F000C801B5010E94A51FC801B6010E94BB1E17
:100A00001F910F91FF90EF90DF90CF90BF90AF902C
:100A10009F908F907F906F905F904F903F902F901E
:100A20000895DF93CF9300D000D000D0CDB7DEB7CC
:100A3000DE011196EFE8F2E086E001900D92815020
:100A4000E1F78DE294E0BE016F5F7F4F0E9498084E
:100A500020E0892B09F021E0822F26960FB6F8942A
:100A6000DEBF0FBECDBFCF91DF910895FC018BE8B3
:100A700092E091838083CF010E94511D0895CF920F
:100A8000DF92EF92FF920F931F938C017B016A011B
:100A9000FC018BE892E081939193CF010E9442097F
:100AA000F801F08AE786D28AC18A1F910F91FF90E0
:100AB000EF90DF90CF900895FC0189E992E0918357
:100AC00080830895FC0189E992E0918380830895F1
:100AD00070E04627572790E021E030EA842F8170AC
:100AE00056954795813011F4422753279F5F9830E0
:100AF000A9F7CA010895CF92DF92EF92FF920F9368
:100B00001F93CF93DF936C018B01C0E0D0E02FEFF8
:100B10003FEFE42EFF2409C0C601F80161918F0167
:100B2000A9010E9468059C012196CE15DF05A0F35E
:100B3000922F80E0232F30E0282B392BC901DF9141
:100B4000CF911F910F91FF90EF90DF90CF9008957C
:100B5000CF93DF93EC018B819C81029719F02FEFEB
:100B60003FEF80C099898A81981709F077C0BE014C
:100B70006F5E7F4F4D814250CE010E947B05292F31
:100B8000ED81FE81EC0FFD1F9089981709F066C07A
:100B90008785821709F062C03C8920E08D8990E04A
:100BA000282B392BCF5EDE4F39832883C151D140AA
:100BB0003E8920E08F8990E0282B392BCD5EDE4FD7
:100BC00039832883C351D140388D20E0898D90E04E
:100BD000282B392BCB5EDE4F39832883C551D1407A
:100BE0002A8D30E040E050E0522F4427332722275F
:100BF0008B8D90E0A0E0B0E0DC0199278827282BBE
:100C0000392B4A2B5B2B8D8D90E0A0E0B0E0282B98
:100C1000392B4A2B5B2B8C8D90E0A0E0B0E0BA2FF3
:100C2000A92F982F8827282B392B4A2B5B2BC95E9D
:100C3000DE4F288339834A835B83C751D1403E8D81
:100C400020E08F8D90E0282B392BC55EDE4F398355
:100C50002883CB51D14021E030E002C02FEF3FEF9D
:100C60001C821B82C901DF91CF9108959B01FC0179
:100C700070876783662757FD6095762FC9010E94AC
:100C8000281B0895CF92DF92EF92FF920F931F934C
:100C9000CF93DF936C017B018A01C0E0D0E011C0EB
:100CA000F601A781B085ED91FC91119797012C0F6A
:100CB0003D1F0190F081E02DCD01D9016C91099586
:100CC0002196C017D10760F368EC70E080E090E0F7
:100CD0000E943420C801DF91CF911F910F91FF90A6
:100CE000EF90DF90CF900895EF92FF920F931F93B4
:100CF000CF93DF938C017B01DC011796ED91FC9182
:100D00001897A081B18114962D913C911597CF0130
:100D1000F9010995892B49F461E070E080E090E0E9
:100D20000E943420C0E0D0E030C068EC70E080E089
:100D300090E00E943420C0E0D0E017C0F801A78105
:100D4000B085ED91FC9111970680F781E02DCD01E2
:100D50000995F701EC0FFD1F80832196F1E0C0306B
:100D6000DF0719F4CBEFDFEF10C0D8011796ED9134
:100D7000FC911897A081B18114962D913C91159703
:100D8000CF01F9010995892BC9F6CE01DF91CF91E9
:100D90001F910F91FF90EF9008956F927F928F9225
:100DA0009F92AF92BF92CF92DF92EF92FF920F93FA
:100DB0001F93CF93DF93EC015B016A014901380176
:100DC000BC016F5E7F4F0E9474061816190614F05E
:100DD00080E058C09E838D8382E090E09C838B836B
:100DE000CE010E94A805019709F04BC0CF5EDE4FEF
:100DF0006991799180E090E00E94762220E030E0D5
:100E000048EC52E40E94DD21F70160837183828304
:100E100093836991799180E090E00E94762220E0AE
:100E200030E04AE754E40E94DD21F60160837183DB
:100E30008283938389919991F5019183808369914C
:100E40007991899199910E94762220E030E048E4DE
:100E500055E40E94DD21F4016083718382839383D2
:100E60006881798180E090E00E94762220E030E085
:100E70004AE754E40E94DD21F30160837183828399
:100E8000938381E0DF91CF911F910F91FF90EF90BD
:100E9000DF90CF90BF90AF909F908F907F906F909A
:100EA0000895EF92FF920F931F938C0168E077E013
:100EB00080E090E00E943420F8018281818783E005
:100EC0008287138688E48487158686E08687A9E072
:100ED000EA2EF12CE00EF11EC801B70146E00E9497
:100EE0007B05F8019787808BC801B70148E050E087
:100EF0000E944206182F092F87E595E068E272E00C
:100F00000E94A51F812F902F1F910F91FF90EF90AE
:100F10000895FC0162830E9451070895FC0189E94C
:100F200092E091838083CF010E94511D08950F9319
:100F30008130910581F46F5F7F4FB1F48FE194E0D0
:100F400060E040E020E000E00E94AF1C80E093E021
:100F50000E945C0509C0892B39F46F5F7F4F21F433
:100F600080E093E00E9462050F91089580E090E098
:100F70006FEF7FEF0E949707089581E090E06FEF99
:100F80007FEF0E94970708956F927F928F929F92B2
:100F9000AF92BF92CF92DF92EF92FF920F931F9387
:100FA000DF93CF93CDB7DEB762970FB6F894DEBF6D
:100FB0000FBECDBF80E093E062E00E948907181663
:100FC00019060CF051C01A82198280E090E0A0E06E
:100FD000B0E08B839C83AD83BE838F839887A98782
:100FE000BA878B879C87AD87BE878F87988BA98BA5
:100FF000BA8B80E093E0BE016F5F7F4FAE014D5F23
:101000005F4F9E01295F3F4F8E01055F1F4FEFE04D
:10101000EE2EF12CEC0EFD1E0E94CD06882321F150
:1010200000D000D080911D0490911E0469817A81C6
:101030002B813C814D815E81EF80F88409851A8582
:10104000AB84BC84CD84DE846F84788889889A8858
:10105000EDB7FEB761827282838294820E9496020B
:101060000F900F900F900F9060EE7EE280E090E086
:101070000E94342062960FB6F894DEBF0FBECDBF3B
:10108000CF91DF911F910F91FF90EF90DF90CF9064
:10109000BF90AF909F908F907F906F9008950F9327
:1010A0001F9307E515E0C80140EC52E160E070E0F5
:1010B0000E94281B80E093E0B80140EC52E10E94BE
:1010C000360683E190E00E94541D182F092F6AE331
:1010D00072E04BE552E00E94660410931D040093F9
:1010E0001E04812F902F0E9411051F910F910895CA
:1010F000DB01FC0121EF32E03183208312962D9138
:101100003D914D915C9115972283338344835583A0
:1011100008950F9385E394E060E040E020E000E074
:101120000E94AF1C8DE294E00E942A1D0F91089549
:10113000CF92DF92EF92FF920F931F93DF93CF93A3
:10114000CDB7DEB76E970FB6F894DEBF0FBECDBF3A
:101150006C017B0180913B04882371F48BE394E064
:101160000E94431D892B41F08AE894E00E949D0C67
:101170008BE394E00E944D1D83E494E0F601978395
:10118000868383EB94E00E94601189E090E0B701D0
:1011900046E050E00E947E0FCE01019660E040E004
:1011A00020E000E00E94AF1C8FE090E0BE016D5F88
:1011B0007F4F44E050E00E947E0FF60186819781C8
:1011C000B70120E63AEE40E050E0F0EAEF2EFFE013
:1011D000FF2E012D112D0E943E178C0181309105AB
:1011E00009F040C0F60166817781CE0107960E9422
:1011F000E8118FE090E0BE01675F7F4F44E050E070
:101200000E947E0FF60166817781CE010D960E94C5
:10121000D21181E090E0BE01615F7F4F44E050E079
:101220000E947E0FF60166817781CE0143960E946F
:10123000DD1185E090E0BE016B5E7F4F44E050E041
:101240000E947E0FF60166817781CE0149960E9449
:10125000C7118B8D9C8DAD8DBE8DF60182839383DE
:10126000A483B583C8016E960FB6F894DEBF0FBE97
:10127000CDBFCF91DF911F910F91FF90EF90DF9045
:10128000CF900895FC011382128288EE93E0A0E0D3
:10129000B0E084839583A683B78381EA92E091834B
:1012A000808384E084870895DF93CF930F92CDB736
:1012B000DEB7FC016983A081B18112962D913C912A
:1012C0001397BE016F5F7F4F41E050E0F901099530
:1012D0000F90CF91DF910895CF93DF93EC0107C07A
:1012E000E881F9810680F781E02DCE010995E8813A
:1012F000F9810480F581E02DCE010995892B81F7D4
:10130000DF91CF91089520E0FC018485843009F0BD
:1013100021E0822F08950F9385EA94E060E040E099
:1013200020E000E00E94AF1C0F910895FC0184852D
:10133000843011F480E00895982F80E08D5F9B4FFA
:101340000E94A50F0895CF93DF93EC018C85843024
:1013500011F480E019C0CE010E949609843191F009
:10136000882381F0883171F08C3151F4E881F98162
:101370000480F581E02DCE01099520E0892B19F03C
:1013800021E001C020E0822FDF91CF910895EF92FC
:10139000FF920F931F93CF93DF93EC018C858430E2
:1013A00089F10E94730D0E9400207B018C01CE0107
:1013B0000E949609882301F10E9400206E197F097E
:1013C000800B910B685E734080409040A8F461E010
:1013D00070E080E090E00E943420E9CF8C850E948C
:1013E000BA0DEC85F0E0EE0FFF1FEB5DFB4F1182B5
:1013F000108284E08C8706C0CE010E949609882363
:1014000081F3ECCFDF91CF911F910F91FF90EF907F
:1014100008950F931F93DF93CF930F92CDB7DEB74D
:101420008C01DC01ED91FC910480F581E02D0995A2
:10143000892B19F42FEF3FEF0AC0F8018485BE0114
:101440006F5F7F4F0E94150F8981282F30E0C901FF
:101450000F90CF91DF911F910F910895FC0184852A
:101460000E94240F0895DF93CF930F92CDB7DEB77C
:10147000FC018485BE016F5F7F4F41E050E00E9418
:10148000240F181619061CF02FEF3FEF03C08981B7
:10149000282F30E0C9010F90CF91DF910895FC0112
:1014A0006485643019F420E030E005C083EB94E0FB
:1014B0000E9452109C01C90108950F931F93CF936E
:1014C000DF938C01EA01FC018485843019F481E00A
:1014D00090E007C00E94BE0E892B39F481E090E0B5
:1014E000F80193838283C0E0D0E0CE01DF91CF91F9
:1014F0001F910F910895AF92BF92CF92DF92EF921A
:10150000FF920F931F93CF93DF937C016B015A01DE
:10151000FC018485843009F056C0C0E0D0E003E0CF
:1015200014E0C8010E94A50F882321F0883111F032
:101530008C3119F4F701C48706C0219600501F4F63
:10154000C430D10571F7F70124852430E1F1809191
:101550007D0290917E02019690937E0280937D029F
:10156000892B31F480E094E090937E0280937D0299
:1015700040917D0250917E02822F61E020E00E9426
:10158000EF0D82E090E0C80ED91EF7018485B60108
:10159000A5010E94580E09C061E070E080E090E073
:1015A0000E943420C7010E949609882321F484E018
:1015B000F701848708C0C7010E949609873161F747
:1015C00021E030E002C020E030E0C901DF91CF919E
:1015D0001F910F91FF90EF90DF90CF90BF90AF9051
:1015E00008956F927F928F929F92AF92BF92CF9207
:1015F000DF92EF92FF920F931F93DF93CF93CDB7BC
:10160000DEB7E5970FB6F894DEBF0FBECDBF4C0135
:101610005B013A0193E1E92EF12CEC0EFD1EC701AE
:101620000E942A1DCE014B960E949D0C6E010894CB
:10163000C11CD11CC6010E942A1D8E01095F1F4FCB
:10164000C8016DE274E00E947808C701B8010E94E9
:101650008917C701B501A6010E94081A9C018130B3
:101660009105C9F4D401ED91FC910484F585E02D38
:1016700081EF92E09E878D878B819C81AD81BE81B9
:101680008F87988BA98BBA8BC401BE01635F7F4F94
:10169000A30109959C01C901E5960FB6F894DEBF38
:1016A0000FBECDBFCF91DF911F910F91FF90EF90B3
:1016B000DF90CF90BF90AF909F908F907F906F9072
:1016C0000895DC01ED91FC91008CF18DE02D0995E0
:1016D0000895DB01FC0121EF32E031832083519634
:1016E0002D913D914D915C91549722833383448396
:1016F00055830895FC01858996890895FC01818DA3
:10170000928D0895DF93CF930F92CDB7DEB7FC0192
:101710006983A081B18112962D913C911397BE01EE
:101720006F5F7F4F41E050E0F90109950F90CF9135
:10173000DF910895CF93DF93EC0107C0E881F98131
:101740000680F781E02DCE010995898D9A8D892B30
:10175000A9F7DF91CF9108950F938BEA94E060E0B1
:1017600040E020E000E00E94AF1C0F910895DF935D
:10177000CF930F92CDB7DEB7FC01818D928D892B6F
:1017800019F42FEF3FEF09C08485BE016F5F7F4FD3
:101790000E94150F8981282F30E0C9010F90CF9149
:1017A000DF910895CF93DF93EC019A01498D5A8D13
:1017B00041155105A1F02417350710F08C8502C0A2
:1017C0008C85A9010E94240F9C01181619063CF46F
:1017D000898D9A8D821B930B9A8F898F02C02FEF70
:1017E0003FEFC901DF91CF9108950F931F93DF93CE
:1017F000CF930F92CDB7DEB78C01FC01818D928D16
:10180000892BA9F08485BE016F5F7F4F41E050E0D6
:101810000E94240F1816190654F4F801818D928D38
:101820000197928F818F8981282F30E002C02FEF9E
:101830003FEFC9010F90CF91DF911F910F91089554
:10184000EF92FF920F931F93DF93CF93CDB7DEB745
:1018500028970FB6F894DEBF0FBECDBF8C01DC0118
:10186000ED91FC910284F385E02D099583EB94E0E2
:10187000F80164850E945210892B19F420E030E0B1
:1018800025C0D8011C968C917E010894E11CF11CA6
:10189000B70148E050E00E94240F9C011816190679
:1018A000ACF4C8010F96B7010E940C1D9D8180E029
:1018B0002E81820F911DF801968B858B9F8180E090
:1018C0002885820F911D928F818F9C01C9012896D6
:1018D0000FB6F894DEBF0FBECDBFCF91DF911F9141
:1018E0000F91FF90EF9008950F931F938C01FB01D0
:1018F0009A01DC0157966D917C9158971C968C91BA
:10190000AF010E948E0E9C01F8018789908D820F95
:10191000931F908F878BC9011F910F910895FC0130
:1019200084850E948E0D0895FC01108E178A6E5FCB
:101930007F4F84850E94320E0895FC01138212822B
:1019400088EE93E0A0E0B0E084839583A683B7831C
:101950008DEB92E09183808384E08487CF010F96A2
:101960000E942A1D08956F927F928F929F92AF924C
:10197000BF92CF92DF92EF92FF920F931F93DF936C
:10198000CF93CDB7DEB7E5970FB6F894DEBF0FBEA5
:10199000CDBF4C015B013A0183E1E82EF12CEC0E46
:1019A000FD1EC7010E942A1DCE014B960E949D0C70
:1019B0006E010894C11CD11CC6010E942A1D8E0113
:1019C000095F1F4FC8016DE274E00E947808C701EB
:1019D000B8010E948917C701B501A6010E94081A23
:1019E0009C0181309105C9F4D401ED91FC910088EE
:1019F000F189E02D81EF92E09E878D878B819C811C
:101A0000AD81BE818F87988BA98BBA8BC401BE0133
:101A1000635F7F4FA30109959C01C901E5960FB64D
:101A2000F894DEBF0FBECDBFCF91DF911F910F9114
:101A3000FF90EF90DF90CF90BF90AF909F908F90EE
:101A40007F906F900895CF93DF93EC018C85843065
:101A500061F00E94BA0DEC85F0E0EE0FFF1FEB5D28
:101A6000FB4F1182108284E08C87DF91CF91089523
:101A7000CF92DF92EF92FF920F931F93CF93DF935A
:101A80007C016B01FC018485843019F5C0E0D0E055
:101A900003E014E0C8010E94A50F882311F08831EB
:101AA00019F4F701C48706C0219600501F4FC430B7
:101AB000D10581F7F7018485843059F0D686C58633
:101AC000128E118E62E0A60120E00E94EF0D81E0EF
:101AD00001C080E0DF91CF911F910F91FF90EF90B7
:101AE000DF90CF900895682F83EB94E048E050E0BA
:101AF0000E944E11089590E00496982F8827860F33
:101B0000971F0E94A50F089590E00496982F8827AC
:101B1000860F971F642F0E94640F08951F93182F3C
:101B200083EB94E0612F40E250E00E944E1110C020
:101B3000812F62E070E00E947B0D83FF09C0812F3E
:101B400062E070E048E10E94840D20E030E00FC0C8
:101B5000812F62E070E00E947B0D84FFE9CF812F2E
:101B600062E070E040E10E94840D21E030E0C901B4
:101B70001F9108951F93182F83EB94E0612F40E18C
:101B800050E00E944E11812F62E070E04FEF0E9402
:101B9000840D1F9108950F931F93182F062F472F21
:101BA00060E170E00E94840D812F61E170E0402FC0
:101BB0000E94840D1F910F9108950F931F93182F6A
:101BC000062F472F64E070E00E94840D812F65E0AE
:101BD00070E0402F0E94840D1F910F910895FF9295
:101BE0000F931F93CF93DF93082FF62EEA01122F46
:101BF000862F8150853010F080E024C0802F0E9415
:101C0000BA0D1F29802F60E070E0412F0E94840DE3
:101C1000209719F0802FBE010BC06091B104709124
:101C2000B2046F5F7F4F7093B2046093B104802F52
:101C30000E94DD0D83EB94E0602F41E050E00E94B4
:101C40004E1181E0DF91CF911F910F91FF90089588
:101C500090E0982F8827845F9B4F44E050E00E94DB
:101C60007E0F08951F93CF93DF93182FFB01EA0196
:101C70008081882349F48181882331F482818823FB
:101C800019F48381882369F0209759F0812FBF01CF
:101C90000E94280E812FBE010E94CB0D21E030E072
:101CA00002C020E030E0C901DF91CF911F9108957B
:101CB0001F93CF93DF93182FFB01EA0180818F3FA1
:101CC00051F481818F3F91F482818F3F79F4838138
:101CD0008F3F61F41EC0882349F48181882331F449
:101CE0008281882319F48381882399F0209789F0D1
:101CF000812FBF010E94280E812FBE010E94CB0DB3
:101D000083EB94E0612F44E050E00E944E1181E0AB
:101D100001C080E0DF91CF911F910895AF92BF92F3
:101D2000DF92EF92FF920F931F93CF93DF93D82E02
:101D3000EB015A01890183EB94E06D2D0E9485101F
:101D40008017910710F0780106C083EB94E06D2DA9
:101D50000E9485107C0183EB94E06D2DAE0195010E
:101D600087010E94BE0FC701DF91CF911F910F9194
:101D7000FF90EF90DF90BF90AF900895CF92DF92E9
:101D8000EF92FF921F93CF93DF93182F6B01EA011D
:101D900088E04130580710F0C0E0D8E083EB94E0D1
:101DA000612F0E9485107C01812F63E070E00E940A
:101DB0007B0D873129F08C3119F0C0E0D0E003C0F1
:101DC000EC16FD0658F383EB94E0612FA6019E010B
:101DD0000E942F1083EB94E0612F40E250E00E94BC
:101DE0004E110DC0812F63E070E00E947B0D8823AF
:101DF00031F4812F0E94BA0DC0E0D0E00DC0812FD8
:101E000062E070E00E947B0D84FFECCF812F62E0E6
:101E100070E040E10E94840DCE01DF91CF911F91CF
:101E2000FF90EF90DF90CF9008950F93282FAB0194
:101E300083EB94E0622F21E030E001E00E94031187
:101E400081E090E00F910895CF92DF92FF920F937F
:101E50001F93CF93DF93F82E6B018A0183EB94E0FD
:101E60006F2D0E945210EC01009761F48F2D63E0FA
:101E700070E00E947B0D8431D9F08823C9F08C3149
:101E8000B9F01FC0081719070CF4E8011C161D064D
:101E90007CF483EB94E06F2DA6019E0100E00E948C
:101EA000031183EB94E06F2D40E450E00E944E114B
:101EB000CE01DF91CF911F910F91FF90DF90CF90D6
:101EC0000895CFEFDFEFF4CF282F2A9880EF8EBD53
:101ED0000DB407FEFDCF8EB59EBD0DB407FEFDCF40
:101EE0008EB52EBD0DB407FEFDCF8EB56EBD0DB403
:101EF00007FEFDCF8EB52A9A81E00895DC0120E02F
:101F000030E090EF1DC02A989EBD0DB407FEFDCFB6
:101F10008EB5BEBD0DB407FEFDCF8EB5AEBD0DB402
:101F200007FEFDCF8EB5FB01E20FF31F80818EBD52
:101F30000DB407FEFDCF11968EB52A9A2F5F3F4F45
:101F40002417350700F3CA010895282F2A988FE037
:101F50008EBD0DB407FEFDCF8EB59EBD0DB407FE40
:101F6000FDCF8EB52EBD0DB407FEFDCF8EB51EBCC8
:101F70000DB407FEFDCF8EB52A9A08957F928F92F9
:101F80009F92AF92BF92CF92DF92EF92FF920F9308
:101F90001F93CF93DF936C01762E7A01490158018C
:101FA000862F64E270E00E947B0D182F872D65E27A
:101FB00070E00E947B0DC82FD0E0912F80E0C82BED
:101FC000D92BCE0DDF1DAE015770872D90E0880F05
:101FD000991FC80ED91EF60120813181240F351FAB
:101FE000CA018A0D9B1D8150984098F000E018E0CE
:101FF000041B150BC901B401A8010E947E0FA501A5
:10200000401B510BF60180819181080D191DB8010B
:1020100003C0C901B401A5010E947E0F7E01EA0C34
:10202000FB1C072D10E00C5F1F4F102F0027C8016D
:1020300084966F2D0E94640FC80185966E2D0E94B4
:10204000640FDF91CF911F910F91FF90EF90DF9080
:10205000CF90BF90AF909F908F907F9008950F93F7
:102060001F93FA01890140E050E09F010E94BE0FDA
:102070001F910F9108950F931F93182F66E270E040
:102080000E947B0D082F812F67E270E00E947B0D7C
:10209000502F40E0282F30E0242B352BC9011F9111
:1020A0000F910895FF920F931F93CF93DF93F62E16
:1020B000C0E0D0E08F2D0E943B108C01009721F0F2
:1020C0008F2D0E943B10EC01C017D10799F7CE016C
:1020D000DF91CF911F910F91FF9008950F931F9360
:1020E000182F60E270E00E947B0D082F812F61E2C3
:1020F00070E00E947B0D502F40E0282F30E0242B11
:10210000352BC9011F910F910895FF920F931F93D3
:10211000CF93DF93F62EC0E0D0E08F2D0E946E109B
:102120008C01009721F08F2D0E946E10EC01C017DA
:10213000D10799F7CE01DF91CF911F910F91FF90B9
:102140000895DC0120E030E09FE01DC02A989EBD8C
:102150000DB407FEFDCF8EB5BEBD0DB407FEFDCF9D
:102160008EB5AEBD0DB407FEFDCF8EB51EBC0DB451
:1021700007FEFDCF11968EB5FB01E20FF31F8083A2
:102180002A9A2F5F3F4F2417350700F3CA0108959D
:10219000CF92DF92EF92FF920F931F93CF93DF9333
:1021A000690178015770C62FD0E02496CC0FDD1F4F
:1021B000C80FD91F28813981240F351FC801840F0A
:1021C000951F8150984088F000E018E0041B150B23
:1021D000C901B601A8010E94A110E01AF10A888184
:1021E00099810C0D1D1DB80102C0C901B601A701DE
:1021F0000E94A110DF91CF911F910F91FF90EF905E
:10220000DF90CF9008958F929F92AF92BF92CF921E
:10221000DF92EF92FF920F931F93CF93DF937C0196
:10222000A62E6A014901B02E862F68E270E00E9456
:102230007B0D182F8A2D69E270E00E947B0DC82F5C
:10224000D0E0912F80E0C82BD92BC7016A2DAE01B9
:10225000960184010E94C810BB2099F47E01E80C0D
:10226000F91C0A2D10E00C5F1F4F102F0027C8012A
:1022700088966F2D0E94640FC80189966E2D0E946A
:10228000640FDF91CF911F910F91FF90EF90DF903E
:10229000CF90BF90AF909F908F9008951F93162F6F
:1022A000962F80E08F5F9B4F642F0E94640F812FD9
:1022B00061E070E00E947B0D8823C9F71F910895AB
:1022C0000F931F93182F092F6CE271E080E090E0CC
:1022D0000E9434200E949211229A80E090E060E8EF
:1022E0000E94640F8BE190E065E50E94640F8AE133
:1022F00090E065E50E94640F212F302FC901FC0199
:1023000080E090E4918380838050904E9187808715
:1023100080509841329620E68030920799F71F91BD
:102320000F9108958AE061E00E9401218AE061E056
:102330000E9495208CB580618CBD8CB580648CBD6D
:102340008DE061E00E9495208BE061E00E94952085
:102350000895FB0180E38083842F82958F704F70F6
:102360004A3014F4405D01C0495C418331978823B1
:1023700011F0482FF1CF08950F9383EC94E060E0C3
:1023800040E020E000E00E94AF1C0F9108950F9301
:102390001F938C01625E7F4F0E94191DC8011F911F
:1023A0000F9108950F931F938C016A5E7F4F0E94D7
:1023B000191DC8011F910F9108950F931F938C0150
:1023C0006E5E7F4F0E94191DC8011F910F910895E5
:1023D0000F931F938C01625F7F4F0E94191DC801EC
:1023E0001F910F9108952F923F924F925F926F929B
:1023F0007F928F929F92AF92BF92CF92DF92EF9295
:10240000FF920F931F93DF93CF93CDB7DEB7E8977B
:102410000FB6F894DEBF0FBECDBF5C013A014B0191
:1024200029010E9400207B018C01F7E4CF2ED12CE2
:10243000CA0CDB1C14C00E9400206E197F09800B9F
:10244000910B661677068806990618F477247A9415
:102450001AC262E370E080E090E00E943420C6017E
:102460000E94200C1816190634F7C601BE01635FDE
:102470007F4F42E250E00E94D20B8D85823009F0FE
:10248000FEC12CE530E0A20EB31EF50180819181E2
:1024900024EA3FEFA20EB31E8334910509F0EFC189
:1024A00029893A894B895C89E52EFF240027112769
:1024B000B22FAA2799278827E82AF92A0A2B1B2B4B
:1024C000B42FA32F922F882780709070B070E82AC5
:1024D000F92A0A2B1B2B232F342F452F5527207029
:1024E00040705070E22AF32A042B152BF201E0828F
:1024F000F18202831383B501685F7F4FCE01899615
:1025000046E050E00E942602009799F4F501808190
:102510009181A281B381E816F9060A071B0748F0EA
:1025200084819581A681B7818E159F05A007B1078B
:1025300028F4C6010E949A0B7724A5C18D8D9E8D2B
:10254000AF8DB8A1F50186879787A08BB18B00E08E
:1025500010E0C6010E94F50B0F5F1F4F0E3C1105E6
:10256000C1F795012E5E3F4F38AF2FABC5014696A0
:102570009EAB8DABF5017E96FCABEBAB8AE1882E72
:10258000912C8A0C9B1C95012A5D3F4F3AAB29ABDD
:10259000C5018A9698AB8FA702E2202E312C2A0C17
:1025A0003B1C772418E5412E512C4A0C5B1C5FC163
:1025B000C6010E94F50B8333910509F414C18433DD
:1025C00091058CF48130910569F18230910524F4F4
:1025D000892B09F44CC140C18330910551F1069714
:1025E00009F03AC142C08A33910509F490C08B3397
:1025F00091053CF48533910569F0C69709F02CC12B
:1026000050C08B33910509F4B8C08F3F910509F094
:1026100023C12DC1C6010E94F50BC6010E94F50B16
:10262000782E25C1C6010E94F50BC6016FA978ADB1
:1026300062C0C6010E94F50B182FC6016DA97EA9C4
:1026400044E050E00E94D20BEE24FF24012F10E062
:102650000450104006C0C6010E94F50B0894E11C0E
:10266000F11CE016F106BCF302C1C6010E94F50B95
:10267000182FC6016BA97CA944E050E00E94D20B40
:10268000EE24FF24012F10E00450104006C0C601C4
:102690000E94F50B0894E11CF11CE016F106BCF356
:1026A000E6C0C6010E94F50B182FF40180819181CC
:1026B000A281B3810097A105B105D9F0CE010196A1
:1026C000B4010E94191D21EF32E038872F83F201F7
:1026D000208131814281538129873A874B875C87EA
:1026E0008B819C81AD81BE8182179307A407B507BA
:1026F00059F4C601B40144E050E00E94D20BB7C0C7
:10270000C6010E94F50B11501123D1F7B0C0C601CC
:102710000E94F50BC60169A97AA944E050E00E9425
:10272000D20BF50126A137A140A551A5E52EFF2426
:1027300000271127B22FAA2799278827E82AF92AE4
:102740000A2B1B2BB42FA32F922F882780709070F9
:10275000B070E82AF92A0A2B1B2B232F342F452F80
:102760005527207040705070E22AF32A042B152B55
:10277000E6A2F7A200A711A77AC0C6010E94F50B36
:10278000C6016FA578A944E050E00E94D20BF50184
:1027900022A533A544A555A5E52EFF240027112722
:1027A000B22FAA2799278827E82AF92A0A2B1B2B58
:1027B000B42FA32F922F882780709070B070E82AD2
:1027C000F92A0A2B1B2B232F342F452F5527207036
:1027D00040705070E22AF32A042B152BE2A6F3A6D0
:1027E00004A715A744C0C6010E94F50BC601B1019C
:1027F00044E050E00E94D20BF50122A133A144A194
:1028000055A1E52EFF2400271127B22FAA279927CB
:102810008827E82AF92A0A2B1B2BB42FA32F922FE3
:10282000882780709070B070E82AF92A0A2B1B2B39
:10283000232F342F452F5527207040705070E22AE7
:10284000F32A042B152BE2A2F3A204A315A3E6A6F8
:10285000F7A600AB11AB0BC0C6010E94F50B182FF9
:1028600004C0C6010E94F50B11501123D1F7C60117
:102870000E947E0B181619060CF49ACE01C077241C
:10288000C6010E949A0B872DE8960FB6F894DEBF1A
:102890000FBECDBFCF91DF911F910F91FF90EF90B1
:1028A000DF90CF90BF90AF909F908F907F906F9070
:1028B0005F904F903F902F9008950E96FC0184E119
:1028C000DF011D928A95E9F708954F925F926F920A
:1028D0007F928F929F92AF92BF92CF92DF92EF92B0
:1028E000FF920F931F93DF93CF93CDB7DEB7E2979D
:1028F0000FB6F894DEBF0FBECDBF6C01462E3A0175
:10290000F3E18F2E912C8C0E9D1EE0E25E2EF401E1
:10291000252D11922A95E9F7CE0107966FEF4FEF1B
:102920002FEF0FEF0E94AF1C77E4A72EB12CAC0C59
:10293000BD1C81EF92E09E878D8789859A85AB8546
:10294000BC858F87988BA98BBA8BC501BE01635F4D
:102950007F4F43E450E00E94940C8F5F9F4F09F437
:10296000F3C081E08B8B8C8B86E08D8B1E8AF60109
:102970002481358146815781E52EFF2400271127C8
:10298000B22FAA2799278827E82AF92A0A2B1B2B76
:10299000B42FA32F922F882780709070B070E82AF0
:1029A000F92A0A2B1B2B232F342F452F5527207054
:1029B00040705070E22AF32A042B152BEB82FC8224
:1029C0000D831E83EF8AF88E098F1A8F7B8E6C8E93
:1029D00080E890E09A8389839E8F8D8FC501B40132
:1029E0004CE150E00E94740CF40111925A94E9F702
:1029F000A8E06A2E712C6C0C7D1CD401F30186E0DA
:102A000001900D928150E1F78E010D5E1F4FC501BF
:102A1000B80140E150E00E94740C80E2F80111928C
:102A20008A95E9F7EE24FF24902E012FC501692D28
:102A3000702F40E250E00E94740C0894E11CF11CDD
:102A4000F6E0EF16F10491F793E69B8B82E88C8B0E
:102A500083E58D8B9E8B85E38F8B91E0988F498EDC
:102A60008DE38A8F87E08B8F9C8FDE015D96F3016B
:102A700086E001900D928150E1F78CE08BA38CA34E
:102A80008E010D5E1F4FCE0185966EE572E00E94AD
:102A90003302C601BE01655D7F4FF60143850E948A
:102AA000A911C601BE01635D7F4FF60144850E94F6
:102AB000A911C601BE01615D7F4FF60145850E94E7
:102AC000A911C501B8014EE150E00E94740CF3E079
:102AD0004F16F1F482E38B8B94E09C8BF601868594
:102AE0008D8B87858E8B80898F8B8189888F86E3FC
:102AF000898F9A8F828D8B8F838D8C8F848D8D8F14
:102B0000858D8E8FC501B8014CE050E00E94740C99
:102B100087E38B8B96E09C8B81E08D8B83E08E8BA3
:102B20009F8B8FE0888F8AE3898F8BE38A8F8FEF6B
:102B30008B8FC501BE016D5E7F4F49E050E00E9462
:102B4000740CC5010E948F0CE2960FB6F894DEBF9C
:102B50000FBECDBFCF91DF911F910F91FF90EF90EE
:102B6000DF90CF90BF90AF909F908F907F906F90AD
:102B70005F904F9008952F923F924F925F926F9285
:102B80007F928F929F92AF92BF92CF92DF92EF92FD
:102B9000FF920F931F93DF93CF9300D000D0CDB758
:102BA000DEB78C0161E070E080E090E020ED37E07E
:102BB00040E050E00E945621D80114966C9314977F
:102BC00015967C93159716968C93169717969C934B
:102BD00017976C9311967C93119712968C9312977A
:102BE00013969C9377E4472E512C400E511EC20140
:102BF0000E94230DC20164E470E00E94380D882316
:102C000019F46624772422C10E9400204B015C0144
:102C10006624772466E4C62ED12CC00ED11E5EE356
:102C2000252E312C200E311E42E0E42EFBC08823DD
:102C300009F5F80184819581A681B7810196A11DCE
:102C4000B11D84839583A683B7830E9400206819F1
:102C500079098A099B0928EE33E040E050E00E94A0
:102C60003224C80161E0A9010E94651481E0D60107
:102C70008C93C2C0843001F5F80184819581A681CE
:102C8000B7810196A11DB11D84839583A683B78367
:102C90000E940020681979098A099B0928EE33E00F
:102CA00040E050E00E943224C80163E0A9010E9484
:102CB0006514D601EC92A0C0813069F5F101408124
:102CC000518162817381C8019E012F5F3F4F0E9435
:102CD000F311F82EF2E08F1709F089C089819A81EB
:102CE000AB81BC81F80184839583A683B7830E945E
:102CF0000020681979098A099B0928EE33E040E031
:102D000050E00E943224C80163E0A9010E946514CA
:102D1000D601FC9271C0823009F06EC0F101408191
:102D2000518162817381C8019E012F5F3F4F0E94D4
:102D3000F311F82EF5E08F1709F053C0E3E0D60148
:102D4000EC93F80182A193A1A4A1B5A10097A105DC
:102D5000B10541F484E893E0A0E0B0E082A393A33E
:102D6000A4A3B5A3F80186A197A1A0A5B1A500973A
:102D7000A105B10561F482A193A1A4A1B5A1B69565
:102D8000A7959795879586A397A3A0A7B1A7F801C4
:102D900082A593A5A4A5B5A50097A105B10561F4E9
:102DA00086A197A1A0A5B1A5880F991FAA1FBB1F37
:102DB00082A793A7A4A7B5A7F80186A197A1A0A56C
:102DC000B1A586A797A7A0ABB1AB82A593A5A4A5F3
:102DD000B5A582AB93ABA4ABB5ABA1E06A2E712CC9
:102DE0000BC0F6E08F1719F4D6011C9205C0BFEF97
:102DF000FB1611F4F6011082F1E06F16710491F0E8
:102E00000E940020681979098A099B09D801DA967D
:102E10002D913D914D915C91DD972617370748071D
:102E2000590728F0F6018081833009F000CFC201F4
:102E30000E94230DF80184819581A681B7810196B6
:102E4000A11DB11D84839583A683B783C3010F9011
:102E50000F900F900F90CF91DF911F910F91FF90E6
:102E6000EF90DF90CF90BF90AF909F908F907F902A
:102E70006F905F904F903F902F900895CF92DF9288
:102E8000EF92FF920F931F93CF93DF93EC01D62E17
:102E9000C72E1AA21BA21CA21DA21EA21FA218A608
:102EA00019A61AA61BA61CA61DA61EAA1FAA18AE06
:102EB00019AE2AAF3BAF4CAF5DAFEE96E882F98218
:102EC0000A831B83EE978E01085F1F4F86E0F8018F
:102ED00011928A95E9F7CE010E945D14D8012D2D3B
:102EE0003C2DC901FC0186E001900D928150E1F773
:102EF000CA5BDF4F1882C654D040CE010E94BB157A
:102F0000DF91CF911F910F91FF90EF90DF90CF90C5
:102F100008959C01FB0182819381A481B581F9010F
:102F200082839383A483B583178216820895CF93F7
:102F3000DF93FB0101C0319680818823E1F7EB012B
:102F4000A0E0B0E020E030E021C06E3261F42F3F1D
:102F5000310509F07CF5FA01EA0FFB1F2283119677
:102F600020E030E012C0C901E3E0880F991FEA9524
:102F7000E1F7220F331F820F931F262F332727FDE0
:102F8000309520533040280F391F219668816623E1
:102F900019F0A430B105CCF22F3F310509F054F4FB
:102FA000A430B1053CF4A40FB51F12962C9321E078
:102FB00030E002C020E030E0C901DF91CF910895F8
:102FC0000F9389EC94E060E040E020E000E00E9494
:102FD000AF1C0F9108952F923F924F925F926F9284
:102FE0007F928F929F92AF92BF92CF92DF92EF9299
:102FF000FF920F931F93DF93CF93CDB7DEB76997FF
:103000000FB6F894DEBF0FBECDBF4C018B011A0185
:103010000E9400202B013C01F8E0EF2EF12CE80C7F
:10302000F91C5801CC24DD2414C00E94002064192E
:10303000750986099709A616B706C806D90618F4B1
:103040002FEF3FEF0BC162E370E080E090E00E9461
:103050003420C7010E94200C1816190634F7F40119
:103060002281338144815581818D928DA38DB48DD0
:103070008A879B87AC87BD87281739074A075B0774
:1030800009F0EAC0858D968DC59709F0E5C000C1AD
:103090008E01025F1F4FC701B8014CE050E00E9453
:1030A000D20BF801528143815B834A83F40126816C
:1030B00037818E859F852817390711F457FD06C083
:1030C000C7010E949A0B2CEF3FEFC8C04F7052709F
:1030D000452B31F0C7010E949A0B2BEF3FEFBEC08A
:1030E000F801768067806114710441F0AA24BB2442
:1030F00048012E010894411C511C28C0C7010E94A0
:103100009A0B2AEF3FEFAAC0C701B20141E050E09D
:103110000E94D20B8981882321F408C0C7010E9434
:10312000F50B8981815089838F5FC1F7898188235D
:1031300059F700E010E0C7010E94F50B0F5F1F4F29
:1031400004301105C1F70894A11CB11CF401D4800E
:10315000C580AC14BD04C0F244245524C701BE018F
:103160006F5F7F4F41E050E00E94D20B9981892F21
:10317000807C61F4992321F40DC0C7010E94F50BF6
:103180008981815089838F5FC1F704C0C7010E9484
:10319000F50B19828981882309F7C701BE016C5F8D
:1031A0007F4F42E050E00E94D20BC701BE016A5F30
:1031B0007F4F42E050E00E94D20B00E010E0C701D8
:1031C0000E94F50B0F5F1F4F04301105C1F7C701B7
:1031D000BE016E5F7F4F42E050E00E94D20BDC8068
:1031E000CD80F1E0CF16D10419F5BE80AF8081E02B
:1031F000A816B104E9F49A818B81049731F0C701D4
:103200000E949A0B27EF3FEF29C0E2E0F0E02E0E7C
:103210003F1EC701B10144E050E00E94D20B21E003
:1032200030E01CC0C7010E94F50B0F5F1F4F02C0AA
:1032300000E010E09A808B800815190598F3089437
:10324000411C511C4614570408F488CFC7010E9442
:103250009A0B26EF3FEF02C02EEF3FEFC9016996B0
:103260000FB6F894DEBF0FBECDBFCF91DF911F9197
:103270000F91FF90EF90DF90CF90BF90AF909F9015
:103280008F907F906F905F904F903F902F90089518
:1032900081EF92E099878887C7010E947E0B0C9787
:1032A0000CF0F6CE2DEF3FEFD9CF6F927F928F9239
:1032B0009F92AF92BF92CF92DF92EF92FF920F93C5
:1032C0001F93DF93CF9300D00F92CDB7DEB78C0161
:1032D000F62EE72E0E940020F80177836683B8E07F
:1032E000CB2ED12CC00ED11E0A5F1F4FC601B801D4
:1032F00042E050E00E94740C81E090E09B838A835E
:10330000A2E08A2E912C8C0E9D1EC601B40142E0D3
:1033100050E00E94740C80E091E09B838A83C60198
:10332000B40142E050E00E94740C1B821A82C60174
:10333000B40142E050E00E94740CC601B40142E0C6
:1033400050E00E94740CC601B40142E050E00E94BB
:10335000740C2F2D3E2DC9018C017C013E01089477
:10336000611C711C20C00894E11CF11CF7018081D4
:10337000882311F08E32B9F75701A01AB10A1A1436
:103380001B0474F48E2D801B8983C601B30141E0B8
:1033900050E00E94740CC601B801A5010E94740C93
:1033A00087010F5F1F4FF7018081882311F078019B
:1033B000DDCF1982C601BE016F5F7F4F41E050E053
:1033C0000E94740C00E011E01B830A83C601B40163
:1033D00042E050E00E94740C1B830A83C601B401D2
:1033E00042E050E00E94740C81E090E00F900F905A
:1033F0000F90CF91DF911F910F91FF90EF90DF9091
:10340000CF90BF90AF909F908F907F906F900895D6
:103410008F929F92AF92BF92CF92DF92EF92FF92E4
:103420000F931F93DF93CF9300D000D000D0CDB780
:10343000DEB76C017B014A010E949717892B19F0B6
:1034400001E010E067C0F60122813381448155819B
:103450008091CB049091CC04A091CD04B091CE0486
:10346000281739074A075B0719F40EEF1FEF52C000
:1034700018E0A12EB12CAC0CBD1C0E9400209B01B9
:10348000AC012F70307020503C4FC501B9010E9433
:10349000380D813019F000E010E03CC081EF92E07F
:1034A0009A838983F60182819381A481B5818B837C
:1034B0009C83AD83BE83C501BE016F5F7F4F45E333
:1034C00050E00E94940C8C01009709F1C601B701ED
:1034D0000E9455198C010097D1F0C5010E948F0CF4
:1034E0008C010097A1F0EE24FF24C60168E873E187
:1034F000A4010E94EB178C010894E11CF11CF3E07D
:10350000EF16F10421F08FEF0F3F180771F3C5019B
:103510000E94230DC80126960FB6F894DEBF0FBE99
:10352000CDBFCF91DF911F910F91FF90EF90DF9072
:10353000CF90BF90AF909F908F90089508951F9265
:103540000F920FB60F9211242F933F934F938F93A7
:103550009F93EF93FF938091C00082FD1DC0409127
:10356000C60020910F05309110052F5F3F4F2F733C
:10357000307080911105909112052817390771F06C
:10358000E0910F05F0911005E153FB4F408330931C
:10359000100520930F0502C08091C600FF91EF91A6
:1035A0009F918F914F913F912F910F900FBE0F9050
:1035B0001F901895E0916305F0916405E05CFF4F62
:1035C0008191919120813181821B930B8F73907037
:1035D000892B11F00E949E1A08951F920F920FB628
:1035E0000F9211242F933F938F939F93EF93FF9309
:1035F00020915305309154058091550590915605C1
:103600002817390731F48091C1008F7D8093C10064
:1036100014C0E0915505F0915605ED5EFA4F2081FA
:10362000809155059091560501968F7390709093F7
:103630005605809355052093C600FF91EF919F9109
:103640008F913F912F910F900FBE0F901F90189563
:10365000AF92BF92DF92EF92FF920F931F93CF939F
:10366000DF93EC017A018B01DD24403081EE5807B5
:1036700080E0680780E0780711F0DD24D39491E0C2
:10368000A92EB12CEC89FD89DD2069F0C50108A0C7
:1036900002C0880F991F0A94E2F7808360E079E006
:1036A0008DE390E005C0108260E874E88EE190E060
:1036B000A80197010E9432242150304040405040E0
:1036C000569547953795279580E12030380720F0AB
:1036D000DD2011F0DD24D6CFE889F9893083EA892D
:1036E000FB89208319A2EE89FF89408121E030E027
:1036F000C9010C8C02C0880F991F0A94E2F7482B6D
:103700004083EE89FF894081C9010D8C02C0880F7A
:10371000991F0A94E2F7482B4083EE89FF89408184
:10372000C9010E8C02C0880F991F0A94E2F7482B3A
:103730004083EE89FF8980810F8C02C0220F331FE6
:103740000A94E2F7209528232083DF91CF911F91DF
:103750000F91FF90EF90DF90BF90AF900895DC0144
:103760001C96ED91FC911D97E05CFF4F21913191EA
:1037700080819181281B390B2F733070C901089506
:10378000DC011C96ED91FC911D97E05CFF4F2081C0
:103790003181E054F040DF01AE5BBF4F8D919C91D1
:1037A00011972817390719F42FEF3FEF07C08D91B4
:1037B0009C91E80FF91F8081282F30E0C9010895FE
:1037C000DC011C96ED91FC911D97E05CFF4F208180
:1037D0003181E054F040DF01AE5BBF4F8D919C9191
:1037E00011972817390719F42FEF3FEF10C08D916B
:1037F0009C911197E80FF91F20818D919C91119751
:1038000001968F73907011969C938E9330E0C9014E
:103810000895DC0191968C919197882339F0549604
:10382000ED91FC915597808186FFF9CF91961C927E
:103830000895CF93DF93EC01EE85FF85E05CFF4FA9
:1038400020813181E054F0402F5F3F4F2F73307063
:10385000DF01AE5BBF4F8D919C91119728173907FF
:10386000D1F3E05CFF4F80819181E054F040E80F9C
:10387000F91F6083EE85FF85E05CFF4F3183208375
:10388000EE89FF89208181E090E00F8C02C0880FD3
:10389000991F0A94E2F7282B208381E089A3EC8901
:1038A000FD8980818064808381E090E0DF91CF9109
:1038B000089510925A051092590588EE93E0A0E001
:1038C000B0E080935B0590935C05A0935D05B09399
:1038D0005E0581EE92E090935805809357058FEC3A
:1038E00094E0909364058093630583E195E0909361
:1038F00066058093650585EC90E09093680580935C
:10390000670584EC90E090936A058093690580ECEC
:1039100090E090936C0580936B0581EC90E0909320
:103920006E0580936D0582EC90E090937005809316
:103930006F0586EC90E0909372058093710584E0AA
:103940008093730583E08093740587E08093750509
:1039500085E08093760581E08093770508950F9345
:10396000FC0181EF92E0918380836283438324830F
:1039700005830F91089581EF92E090937A058093EB
:10398000790510927B0510927C0510927D051092AE
:103990007E0508958F929F92AF92BF92CF92DF9251
:1039A000EF92FF920F931F93CF93DF934C016B0124
:1039B0007C01AA24BB24C0E0D0E0C601F7016281EB
:1039C0004AE050E00E94381E8C01C6016EE20E945F
:1039D000811D080F191FA00EB11E21960894E11C2D
:1039E000F11CC330D10549F7C601F40165814AE0F5
:1039F00050E00E94381E9501280F391FC901DF9140
:103A0000CF911F910F91FF90EF90DF90CF90BF90DB
:103A1000AF909F908F9008959C01FB0180819181D0
:103A2000A281B381F90182839383A483B583C90101
:103A300008959C01FB0181EF92E0D9018D939C9345
:103A400080819181A281B381F90182839383A483D0
:103A5000B5830895FC0181EF92E091838083128207
:103A60001382148215820895CF93DF930E945A2007
:103A70000E944F08CAEDDAE10E94C4072097E1F3E3
:103A80000E94DA1AF9CFFC0120E030E0808188231F
:103A900011F421E030E0C9010895FC0181E0808348
:103AA00008950E946D0108950E94C3000895CF9269
:103AB000DF92EF92FF920F931F93CF93DF937C01DE
:103AC0006B018A01C0E0D0E00FC0D6016D916D019D
:103AD000D701ED91FC910190F081E02DC70109958E
:103AE000C80FD91F015010400115110571F7CE0103
:103AF000DF91CF911F910F91FF90EF90DF90CF90CA
:103B00000895DC01ED91FC910190F081E02D099583
:103B10000895EF92FF920F931F938C01DC01ED91BA
:103B2000FC910190F081E02D6DE009957C01D801B8
:103B3000ED91FC910190F081E02DC8016AE00995BA
:103B40009C012E0D3F1DC9011F910F91FF90EF9019
:103B50000895CF93DF93EC016115710519F420E00E
:103B600030E00FC0DB010D900020E9F71197A61B94
:103B7000B70BE881F9810280F381E02DAD01099551
:103B80009C01C901DF91CF9108954F925F927F927E
:103B90008F929F92AF92BF92CF92DF92EF92FF925D
:103BA0000F931F93DF93CF93CDB7DEB7A1970FB6D7
:103BB000F894DEBF0FBECDBF2C01742ECB01223096
:103BC00008F42AE019A231E2C32ED12CCC0EDD1E5E
:103BD000822E9924AA24BB24672D752FA501940158
:103BE0000E94322479018A01C801B701A50194011C
:103BF0000E941324472D461B0894C108D1084A305F
:103C000014F4405D01C0495CF6014083E114F10405
:103C10000105110521F07E2C5F2DC801DDCFC20109
:103C2000B6010E94A91DA1960FB6F894DEBF0FBE83
:103C3000CDBFCF91DF911F910F91FF90EF90DF905B
:103C4000CF90BF90AF909F908F907F905F904F905C
:103C50000895DC012115310541F4ED91FC910190AD
:103C6000F081E02D642F099508950E94C51D0895E7
:103C7000EF92FF920F931F939A01E62EFF2400E02C
:103C800010E0B801A7010E94291E1F910F91FF901B
:103C9000EF900895CF92DF92EF92FF920F931F93D0
:103CA0006C01E62E9A01FF2400E010E0B801A701A4
:103CB0000E94291E8C01C6010E94891D080F191F30
:103CC000C8011F910F91FF90EF90DF90CF90089562
:103CD000CF92DF92EF92FF920F931F93CF93DF93D8
:103CE000EC016A017B012115310541F4E881F9817C
:103CF0000190F081E02D642F09951FC02A30310515
:103D0000D1F477FF17C0E881F9810190F081E02DAF
:103D10006DE209958C0144275527BA014C195D09BC
:103D20006E097F09CE012AE00E94C51D9801280F67
:103D3000391F04C02AE00E94C51D9C01C901DF9102
:103D4000CF911F910F91FF90EF90DF90CF9008954A
:103D5000EF92FF920F931F937B019A010027F7FCCC
:103D60000095102FB801A7010E94681E1F910F91A6
:103D7000FF90EF9008950E94A91D08957F928F9261
:103D80009F92AF92BF92CF92DF92EF92FF920F93EA
:103D90001F93CF93DF934C017A018B01722ECB01DD
:103DA000BA01A80197010E94DA23882321F0C401F7
:103DB00065E672E021C0C0E0D0E057016801E894F8
:103DC000D7F8C601B5012FEF3FEF4FE75FE70E943D
:103DD000DA23882351F4C601B5012FEF3FEF4FE7F7
:103DE0005FE70E94D921181614F0C1E0D0E02197B6
:103DF00039F0C40169E672E00E94A91DEC0193C08C
:103E0000C801B7012FEF3FEF4FE75FE40E9428237F
:103E1000181654F0C801B7012FEF3FEF4FE75FECE2
:103E20000E94D921882324F4C4016DE672E0E4CF16
:103E3000C801B70120E030E040E050E00E94D92105
:103E400087FD03C0C0E0D0E00EC0D401ED91FC912D
:103E50000190F081E02DC4016DE20995EC0117FBA2
:103E6000109517F9109520E030E040E05FE3DD2485
:103E70000BC0CA01B90120E030E040E251E40E94E9
:103E8000DD219B01AC01D394D71498F3C801B7018D
:103E90000E9475215B016C010E944A227B018C010A
:103EA000C401B801A7012AE030E00E94291EC80F12
:103EB000D91F772039F0C40161E772E00E94A91D83
:103EC000C80FD91FC801B7010E9476229B01AC011F
:103ED000C601B5010E94742124C020E030E040E218
:103EE00051E40E9477237B018C010E9445225B01F3
:103EF0006C01CC24B7FCC094DC2CC401B601A50134
:103F00002AE030E00E94681EC80FD91FC601B50123
:103F10000E9478229B01AC01C801B7010E94742164
:103F20007A947720D1F6CE01DF91CF911F910F9136
:103F3000FF90EF90DF90CF90BF90AF909F908F90C9
:103F40007F9008950E94BE1E0895EF92FF920F93F6
:103F50001F937C010E94A91D8C01C7010E94891D2D
:103F6000080F191FC8011F910F91FF90EF9008953E
:103F70001F920F920FB60F9211242F933F938F939E
:103F80009F93AF93BF938091830590918405A091F7
:103F90008505B0918605309187050196A11DB11D5B
:103FA000232F2D5F2D3720F02D570196A11DB11D18
:103FB000209387058093830590938405A0938505BE
:103FC000B093860580917F0590918005A091810531
:103FD000B09182050196A11DB11D80937F0590933C
:103FE0008005A0938105B0938205BF91AF919F9109
:103FF0008F913F912F910F900FBE0F901F901895AA
:104000008FB7F89420918305309184054091850500
:10401000509186058FBFB901CA0108959FB7F894E2
:1040200020917F0530918005409181055091820556
:1040300086B5A89B06C08F3F21F02F5F3F4F4F4FA3
:104040005F4F9FBF542F432F322F2227280F311D40
:10405000411D511D82E0220F331F441F551F8A95B9
:10406000D1F7B901CA010895EF92FF920F931F9300
:10407000CF93DF937B018C010E940E20EB010EC0D9
:104080000E940E206C1B7D0B685E7340C8F3089481
:10409000E108F10801091109C851DC4FE114F104EC
:1040A0000105110569F7DF91CF911F910F91FF90E5
:1040B000EF900895789484B5826084BD84B5816062
:1040C00084BD85B5826085BD85B5816085BDEEE620
:1040D000F0E0808181608083E1E8F0E010828081FF
:1040E00082608083808181608083E0E8F0E080816D
:1040F00081608083E1EBF0E0808184608083E0EB8D
:10410000F0E0808181608083EAE7F0E08081846074
:1041100080838081826080838081816080838081D0
:10412000806880831092C1000895CF93DF93482F59
:1041300050E0CA018C509F4FFC01349140525F4FB8
:10414000FA018491882369F190E0880F991FFC019E
:10415000EE53FF4FA591B491FC01E453FF4FC5917D
:10416000D491662351F42FB7F8948C91932F9095A6
:1041700089238C93888189230BC0623061F42FB727
:10418000F8948C91932F909589238C938881832B1D
:1041900088832FBF06C09FB7F8948C91832B8C9394
:1041A0009FBFDF91CF910895833071F0843028F460
:1041B0008130A1F0823021F514C08630B1F0873013
:1041C000D1F08430E9F404C0809180008F7703C07F
:1041D000809180008F7D80938000089584B58F77D3
:1041E00002C084B58F7D84BD08958091B0008F7723
:1041F0008093B00008958091B0008F7D8093B000CF
:104200000895FF920F931F93F62E482F50E0CA0196
:10421000885F9E4FFC012491CA018C509F4FFC0186
:10422000149140525F4FFA0104910023C9F02223F8
:1042300019F0822F0E94D420E02FF0E0EE0FFF1F34
:10424000E453FF4FA591B4919FB7F894FF2021F458
:104250008C911095812302C08C91812B8C939FBFF0
:104260001F910F91FF900895EF92FF920F931F936C
:104270007B018C01611571058105910529F420E010
:1042800030E040E050E00BC00E941802A801970106
:104290000E945424AC01CB01DA019C01AD01B901AB
:1042A000CA011F910F91FF90EF900895EF92FF9236
:1042B0000F931F937B018C01621773078407950787
:1042C00064F4261B370B480B590BCA01B9010E9435
:1042D0003421E60EF71E081F191FB701C8011F91F0
:1042E0000F91FF90EF9008955058BB27AA270ED04A
:1042F00075C166D130F06BD120F031F49F3F11F4DD
:104300001EF45BC10EF4E095E7FB51C1E92F77D1B4
:1043100080F3BA17620773078407950718F071F4E2
:104320009EF58FC10EF4E0950B2EBA2FA02D0B0138
:10433000B90190010C01CA01A0011124FF27591BEA
:1043400099F0593F50F4503E68F11A16F040A22FF0
:10435000232F342F4427585FF3CF46953795279561
:10436000A795F0405395C9F77EF41F16BA0B620B60
:10437000730B840BBAF09150A1F0FF0FBB1F661FA7
:10438000771F881FC2F70EC0BA0F621F731F841FEA
:1043900048F4879577956795B795F7959E3F08F010
:1043A000B3CF9395880F08F09927EE0F97958795CF
:1043B0000895D9D008F481E008950CD00FC107D139
:1043C00040F0FED030F021F45F3F19F0F0C0511101
:1043D00039C1F3C014D198F39923C9F35523B1F32C
:1043E000951B550BBB27AA2762177307840738F064
:1043F0009F5F5F4F220F331F441FAA1FA9F333D0C3
:104400000E2E3AF0E0E830D091505040E695001C76
:10441000CAF729D0FE2F27D0660F771F881FBB1F32
:10442000261737074807AB07B0E809F0BB0B802D0C
:10443000BF01FF2793585F4F2AF09E3F510568F058
:10444000B6C000C15F3FECF3983EDCF386957795EC
:104450006795B795F7959F5FC9F7880F911D96955A
:10446000879597F90895E1E0660F771F881FBB1FB6
:10447000621773078407BA0720F0621B730B840B63
:10448000BA0BEE1F88F7E095089504D06894B11137
:10449000D9C00895BCD088F09F5790F0B92F9927C4
:1044A000B751A0F0D1F0660F771F881F991F1AF03F
:1044B000BA95C9F712C0B13081F0C3D0B1E0089508
:1044C000C0C0672F782F8827B85F39F0B93FCCF389
:1044D000869577956795B395D9F73EF49095809535
:1044E000709561957F4F8F4F9F4F0895E89409C055
:1044F00097FB3EF490958095709561957F4F8F4F17
:104500009F4F9923A9F0F92F96E9BB279395F6952C
:10451000879577956795B795F111F8CFFAF4BB0FAA
:1045200011F460FF1BC06F5F7F4F8F4F9F4F16C00E
:10453000882311F096E911C0772321F09EE8872F98
:10454000762F05C0662371F096E8862F70E060E054
:104550002AF09A95660F771F881FDAF7880F9695CD
:10456000879597F90895990F0008550FAA0BE0E871
:10457000FEEF16161706E807F907C0F01216130625
:10458000E407F50798F0621B730B840B950B39F465
:104590000A2661F0232B242B252B21F408950A26CB
:1045A00009F4A140A6958FEF811D811D089597F90B
:1045B0009F6780E870E060E008959FEF80EC0895C9
:1045C00000240A94161617061806090608950024F2
:1045D0000A9412161306140605060895092E03946C
:1045E000000C11F4882352F0BB0F40F4BF2B11F4E0
:1045F00060FF04C06F5F7F4F8F4F9F4F089557FD3F
:104600009058440F551F59F05F3F71F04795880F40
:1046100097FB991F61F09F3F79F0879508951216D7
:1046200013061406551FF2CF4695F1DF08C0161683
:1046300017061806991FF1CF869571056105089434
:104640000895E894BB2766277727CB0197F908954B
:104650008ADF08F48FEF08950AD029ED3BE54EED8F
:104660005EE345C00EF0AAC0A8CF6894A0CFCFDF0C
:10467000C8F39923D1F3C6F3DF93CF931F930F931E
:10468000FF92C92FDD2788232AF02197660F771F15
:10469000881FDAF720E030E040E85FEB9FE38839DD
:1046A00020F0803E30F021968F771FDEE8E6F0E0C4
:1046B00003C01BDEE5E9F0E091D08B01BE01EC0107
:1046C000FB2E6F5771097595771F880B990B10DFBB
:1046D00028E132E741E35FE316D0AF2D9801AE0148
:1046E000FF900F911F91CF91DF9110DE77CF0BD00C
:1046F00075CF66DF28F06BDF18F0952309F057CFF0
:104700005CCF11249FCF7BDFA0F3959FD1F3950F52
:1047100050E0551F629FF001729FBB27F00DB11D45
:10472000639FAA27F00DB11DAA1F649F6627B00DD5
:10473000A11D661F829F2227B00DA11D621F739FBE
:10474000B00DA11D621F839FA00D611D221F749FCC
:104750003327A00D611D231F849F600D211D822F13
:10476000762F6A2F11249F5750408AF0E1F088235A
:104770004AF0EE0FFF1FBB1F661F771F881F915067
:104780005040A9F79E3F510570F011CF5BCF5F3FBE
:10479000ECF3983EDCF3869577956795B795F7959A
:1047A000E7959F5FC1F7FE2B880F911D9695879522
:1047B00097F90895D8DE880B990B08959F3F49F02B
:1047C000915028F4869577956795B7959F5F8038C7
:1047D0009F4F880F9695879597F90895DF93CF930C
:1047E0001F930F93FF92EF92DF927B018C016894ED
:1047F00005C0DA2EEF0187DFFE01E894A59125912F
:10480000359145915591AEF3EF0180DDFE019701A1
:10481000A801DA9479F7DF90EF90FF900F911F9144
:10482000CF91DF910895629FD001739FF001829F25
:10483000E00DF11D649FE00DF11D929FF00D839F2F
:10484000F00D749FF00D659FF00D9927729FB00DCC
:10485000E11DF91F639FB00DE11DF91FBD01CF01DF
:1048600011240895A1E21A2EAA1BBB1BFD010DC045
:10487000AA1FBB1FEE1FFF1FA217B307E407F50710
:1048800020F0A21BB30BE40BF50B661F771F881FEC
:10489000991F1A9469F760957095809590959B0182
:1048A000AC01BD01CF01089597FB092E05260ED05E
:1048B00057FD04D0D7DF0AD0001C38F4509540953E
:1048C000309521953F4F4F4F5F4F0895F6F79095E4
:1048D0008095709561957F4F8F4F9F4F0895EE0F94
:1048E000FF1F0590F491E02D09942F923F924F9273
:1048F0005F926F927F928F929F92AF92BF92CF9270
:10490000DF92EF92FF920F931F93CF93DF93CDB778
:10491000DEB7CA1BDB0B0FB6F894DEBF0FBECDBFF0
:1049200009942A88398848885F846E847D848C84C1
:104930009B84AA84B984C884DF80EE80FD800C81CA
:104940001B81AA81B981CE0FD11D0FB6F894DEBFAD
:104950000FBECDBFED01089511E0C0E3D1E004C06A
:10496000FE010E9471242296C233D107C9F7F89440
:02497000FFCF77
:104972006F70656E2E6C6577656935302E636F6D6D
:1049820000436F6E6E656374696F6E3A20636C6F7D
:104992007365005B007B224E616D65223A22474CB3
:1049A20000222C2256616C7565223A2200227D2C4F
:1049B200007B224E616D65223A22444C007B224EDE
:1049C200616D65223A2259444C007B224E616D652D
:1049D200223A22474C5953007B224E616D65223A9E
:1049E20022445900227D005D00504F5354202F6114
:1049F20070692F56312F476174657761792F557031
:104A02006461746553656E736F72732F002048542E
:104A120054502F312E3100757365726B65793A20CF
:104A220000486F73743A206F70656E2E6C657765FF
:104A32006935302E636F6D00557365722D41676560
:104A42006E743A20554E4F00436F6E74656E742D2E
:104A52004C656E6774683A20006F70656E2E6C65E7
:104A620077656935302E636F6D00436F6E6E6563D7
:104A720074696F6E3A20636C6F7365005B7B224EC4
:104A8200616D65223A2200222C2256616C756522E4
:104A92003A2200227D5D000068617320696E636FB7
:104AA2006D696E6720646174610030323962333837
:104AB20038346239316534643030623531343135FD
:104AC20038626131653261633537003031005749F0
:104AD2005A6E6574006E616E00696E66006F76666E
:104AE200002E0020008C05000001000000000400E0
:104AF2000000004C0455040000000079043605DE75
:104B0200ADBEEFFEED0000000062058E0700000062
:104B12000054095D0A4F0A330A090A6C097B0AF13B
:104B22000A2E0AC709A309830900000000820B7438
:104B32000C7E0BF50BB70B9A0B380D230D940CB3AF
:104B42000C8F0C200CD20B610B690B7A0B0000004E
:104B520000191C571DAF1BE01BC01B091C000000E5
:044B620000CA1C0069
:00000001FF
