:100000000C9497000C94BF000C94BF000C94BF009C
:100010000C94BF000C94BF000C94BF000C94BF0064
:100020000C94BF000C94BF000C94BF000C94BF0054
:100030000C94BF000C94BF000C94BF000C94BF0044
:100040000C94A61B0C94BF000C94A1160C94EF16F4
:100050000C94BF000C94BF000C94BF000C94BF0024
:100060000C94BF000C94BF0008000000BE9224490D
:10007000123EABAAAA2ABECDCCCC4C3E00000080DA
:10008000BEABAAAAAA3E00000000BF000000803F4D
:100090000000000000084178D3BB4387D1133D190D
:1000A0000E3CC3BD4282AD2B3E68EC8276BED98F3A
:1000B000E1A93E4C80EFFFBE01C4FF7F3F0000007E
:1000C000000000000000240027002A0000000000BB
:1000D000250028002B000000000023002600290036
:1000E00004040404040404040202020202020303DE
:1000F00003030303010204081020408001020408E6
:100100001020010204081020000000070002010076
:100110000003040600000000000000003802C202D4
:100120008B048D05AE07BE0DE2135B18BD181124BC
:100130001FBECFEFD8E0DEBFCDBF12E0A0E0B1E040
:10014000E8E3F1E402C005900D92AA39B107D9F7AE
:1001500014E0AAE9B2E001C01D92AF30B107E1F7A7
:1001600011E0CEE2D1E004C02297FE010E945F20A0
:10017000CC31D107C9F70E9436190C949A200C94FF
:100180000000CF93DF93BC018230910510F462E050
:1001900070E0A0910D04B0910E04ED01E0E0F0E0FC
:1001A00040E050E021C0888199818617970769F463
:1001B0008A819B81309719F09383828304C0909346
:1001C0000E0480930D04FE0134C06817790738F4DB
:1001D0004115510519F08417950708F4AC01FE018B
:1001E0008A819B819C01E9012097E9F6411551051F
:1001F000A9F1CA01861B970B049708F4BA01E0E045
:10020000F0E02AC08D919C91119784179507F9F41D
:100210006417750781F412968D919C91139730970E
:1002200019F09383828304C090930E0480930D048D
:10023000FD0132964CC0CA01861B970BFD01E80FE9
:10024000F91F6193719302978D939C9340C0FD01B8
:10025000828193819C01D9011097A1F680910B04B2
:1002600090910C04892B41F48091230290912402F7
:1002700090930C0480930B04409125025091260228
:100280004115510541F44DB75EB78091210290911F
:100290002202481B590B20910B0430910C04CA0117
:1002A000821B930B8617970780F0AB014E5F5F4F61
:1002B0008417950750F0420F531F50930C0440933E
:1002C0000B04F9016193719302C0E0E0F0E0CF010B
:1002D000DF91CF910895CF93DF93009709F450C039
:1002E000EC0122971B821A82A0910D04B0910E049A
:1002F000109709F140E050E0AC17BD0708F1BB834F
:10030000AA83FE0121913191E20FF31FAE17BF07BF
:1003100079F48D919C911197280F391F2E5F3F4FD3
:100320003983288312968D919C9113979B838A839E
:100330004115510571F4D0930E04C0930D0420C0F3
:1003400012968D919C911397AD01009711F0DC01ED
:10035000D3CFFA01D383C28321913191E20FF31FEE
:10036000CE17DF0769F488819981280F391F2E5F26
:100370003F4FFA01318320838A819B81938382835B
:10038000DF91CF910895A0E0B0E0E9ECF1E00C94AA
:100390006B20EC01A880B980CA80DB80A114B10475
:1003A000C104D10441F484E2A82E89EDB82E8BE576
:1003B000C82E87E0D82EC601B5012DE133EF41E00C
:1003C00050E00E94422027EA31E440E050E00E94E1
:1003D00001207B018C01C601B5012DE133EF41E025
:1003E00050E00E944220CA01B9012CEE34EF4FEFD9
:1003F0005FEF0E9401206E0D7F1D801F911F97FFF0
:1004000004C06150704080409048688379838A833B
:100410009B839B01AC015F77B901CA01CDB7DEB701
:10042000EAE00C9487200E94C301089587E292E0DD
:100430000E94C3010895609327027093280280935D
:10044000290290932A020895FB01DC0104C08D91DA
:100450000190801921F441505040C8F7881B990B36
:100460000895FB01DC0101900D920020E1F7089551
:100470000F938CE992E060E040E020E000E00E9411
:10048000B1180F9108950F931F9320912F0230916F
:100490003002409131025091320280919A02909143
:1004A0009B0260E071E002E010E00E94710388238B
:1004B00029F08AED93E065E071E004C08AED93E0F5
:1004C00069E171E00E94931B80919A0290919B02D6
:1004D0000E94C10260912F0270913002809131021E
:1004E0009091320220E030E040E85FE30E94631D1B
:1004F00060932F0270933002809331029093320206
:1005000060EE7EE280E090E00E94221C1F910F913D
:1005100008950F931F938AED93E040EC52E160E061
:1005200070E00E942A1783E190E00E945619182F6C
:10053000092F60912B0270912C0240912D02509155
:100540002E020E945D0410939A0200939B02812F59
:10055000902F0E942F04882329F08AED93E067E210
:1005600071E004C08AED93E06FE271E00E94931B9A
:100570001F910F910895FC0189E392E0918380839C
:10058000089508950F9382EA92E060E040E020E051
:1005900000E00E94B1180F9108952F923F924F9260
:1005A0005F926F927F928F929F92AF92BF92CF9203
:1005B000DF92EF92FF920F931F937C018C010E5FED
:1005C0001F4F5DE5252E51E0352EC801B1010E9477
:1005D000A91AF70161897289C8010E94A91A41E824
:1005E000442E41E0542EC801B2010E94931B3BE807
:1005F000632E31E0732EC801B3010E94A91AF701DE
:1006000067857089C8010E94931B25E9822E21E02D
:10061000922EC801B4010E94931B9CEAA92E91E07E
:10062000B92EC801B5010E94931B8CEBC82E81E046
:10063000D82EC801B6010E94A91A0AED13E0C8011C
:10064000B1010E94A91AF70161897289C8010E944B
:10065000A91AC801B2010E94931BC801B3010E94EC
:10066000A91AF70167857089C8010E94931BC80108
:10067000B4010E94931BC801B5010E94931BC801DD
:10068000B6010E94A91A1F910F91FF90EF90DF9081
:10069000CF90BF90AF909F908F907F906F905F9022
:1006A0004F903F902F9008959B011616170674F4F3
:1006B000B901882777FD8095982F0E94661E0E94B9
:1006C0001A1F0E94331E862F8F5F089560E070E02E
:1006D00080E090E00E941A1F0E94331E862F8E5FDA
:1006E00008954F925F926F927F928F929F92AF92F6
:1006F000BF92CF92DF92EF92FF920F931F93CF930F
:10070000DF934C01562E472E59016A013801EC0146
:100710002296CE016DEC71E040E550E00E94F306B8
:10072000892B11F410E086C0C4010E94CD02C601DD
:10073000B5010E94331E7B018C01C401B7010E94E8
:100740005403A52DB42DFD0101900020E9F7EA1B0B
:10075000FB0B7896E60DF71DE80FF11DCE01BF01EA
:100760004AE050E00E943A1ACE016EED71E00E941C
:10077000931BCE010E948B19CE0160EF71E00E94A5
:10078000A91ACE01652D742D0E94A91ACE016BEF16
:1007900071E00E94A91ACE01B601A50193010E9441
:1007A000901BCE0167E072E00E94931BC401B70169
:1007B0000E945403A52DB42DFD0101900020E9F7FE
:1007C000EA1BFB0B7896E60DF71DE80FF11D8AED8D
:1007D00093E0BF014AE050E00E943A1A8AED93E0AC
:1007E0006EED71E00E94931B8AED93E06BE072E086
:1007F0000E94931B8AED93E060EF71E00E94A91ABA
:100800008AED93E0652D742D0E94A91A8AED93E07C
:100810006BEF71E00E94A91A8AED93E0B601A50181
:1008200093010E94901B8AED93E067E072E00E94C2
:10083000931B11E0CE010E94C905812FDF91CF915A
:100840001F910F91FF90EF90DF90CF90BF90AF90EE
:100850009F908F907F906F905F904F900895DF935F
:10086000CF9300D000D000D0CDB7DEB7DE01119617
:10087000EDE3F2E086E001900D928150E1F780EB2C
:1008800092E0BE016F5F7F4F0E949A0420E0892BA7
:1008900009F021E0822F26960FB6F894DEBF0FBE36
:1008A000CDBFCF91DF910895FC0189E392E0918360
:1008B0008083CF010E9453190895CF92DF92EF9267
:1008C000FF920F931F938C017B016A01FC0189E366
:1008D00092E081939193CF010E944405F801F08A40
:1008E000E786D28AC18A1F910F91FF90EF90DF9027
:1008F000CF900895DB01FC0127E932E031832083AA
:1009000012962D913D914D915C91159722833383E1
:100910004483558308950F9388EB92E060E040E0B4
:1009200020E000E00E94B11880EB92E00E942C19B8
:100930000F910895CF92DF92EF92FF920F931F9342
:10094000DF93CF93CDB7DEB76E970FB6F894DEBFC7
:100950000FBECDBF6C017B018091BE02882371F474
:100960008EEB92E00E944519892B41F08DE093E0D7
:100970000E949F088EEB92E00E944F1986EC92E055
:10098000F6019783868386E393E00E94620D89E0F7
:1009900090E0B70146E050E00E94800BCE01019646
:1009A00060E040E020E000E00E94B1188FE090E0BD
:1009B000BE016D5F7F4F44E050E00E94800BF60166
:1009C00086819781B70120E63AEE40E050E0F0EAF8
:1009D000EF2EFFE0FF2E012D112D0E9440138C0100
:1009E0008130910509F040C0F60166817781CE0122
:1009F00007960E94EA0D8FE090E0BE01675F7F4F8F
:100A000044E050E00E94800BF60166817781CE01C0
:100A10000D960E94D40D81E090E0BE01615F7F4F92
:100A200044E050E00E94800BF60166817781CE01A0
:100A300043960E94DF0D85E090E0BE016B5E7F4F24
:100A400044E050E00E94800BF60166817781CE0180
:100A500049960E94C90D8B8D9C8DAD8DBE8DF60182
:100A600082839383A483B583C8016E960FB6F894EE
:100A7000DEBF0FBECDBFCF91DF911F910F91FF90D1
:100A8000EF90DF90CF900895FC011382128288EEE0
:100A900093E0A0E0B0E084839583A683B78387E4E6
:100AA00092E09183808384E084870895DF93CF93DD
:100AB0000F92CDB7DEB7FC016983A081B181129698
:100AC0002D913C911397BE016F5F7F4F41E050E045
:100AD000F90109950F90CF91DF910895CF93DF939E
:100AE000EC0107C0E881F9810680F781E02DCE0195
:100AF0000995E881F9810480F581E02DCE01099501
:100B0000892B81F7DF91CF91089520E0FC01848546
:100B1000843009F021E0822F08950F9388E293E05A
:100B200060E040E020E000E00E94B1180F910895DD
:100B3000FC018485843011F480E00895982F80E0D2
:100B40008D5F9B4F0E94A70B0895CF93DF93EC011D
:100B50008C85843011F480E019C0CE010E94980584
:100B6000843191F0882381F0883171F08C3151F417
:100B7000E881F9810480F581E02DCE01099520E01E
:100B8000892B19F021E001C020E0822FDF91CF9165
:100B90000895EF92FF920F931F93CF93DF93EC0191
:100BA0008C85843089F10E9475090E94EE1B7B01BF
:100BB0008C01CE010E949805882301F10E94EE1B52
:100BC0006E197F09800B910B685E734080409040E6
:100BD000A8F461E070E080E090E00E94221CE9CF80
:100BE0008C850E94BC09EC85F0E0EE0FFF1FE855F4
:100BF000FD4F1182108284E08C8706C0CE010E94D6
:100C00009805882381F3ECCFDF91CF911F910F914D
:100C1000FF90EF9008950F931F93DF93CF930F9260
:100C2000CDB7DEB78C01DC01ED91FC910480F5813C
:100C3000E02D0995892B19F42FEF3FEF0AC0F80139
:100C40008485BE016F5F7F4F0E94170B8981282F1B
:100C500030E0C9010F90CF91DF911F910F9108955E
:100C6000FC0184850E94260B0895DF93CF930F9299
:100C7000CDB7DEB7FC018485BE016F5F7F4F41E0D9
:100C800050E00E94260B181619061CF02FEF3FEFBC
:100C900003C08981282F30E0C9010F90CF91DF91E7
:100CA0000895FC016485643019F420E030E005C04B
:100CB00086E393E00E94540C9C01C90108950F93B0
:100CC0001F93CF93DF938C01EA01FC01848584306C
:100CD00019F481E090E007C00E94C00A892B39F422
:100CE00081E090E0F80193838283C0E0D0E0CE0100
:100CF000DF91CF911F910F910895AF92BF92CF9244
:100D0000DF92EF92FF920F931F93CF93DF937C01BB
:100D10006B015A01FC018485843009F056C0C0E0A3
:100D2000D0E003E014E0C8010E94A70B882321F063
:100D3000883111F08C3119F4F701C48706C021966F
:100D400000501F4FC430D10571F7F70124852430BE
:100D5000E1F1809133029091340201969093340234
:100D600080933302892B31F480E094E09093340235
:100D7000809333024091330250913402822F61E01C
:100D800020E00E94F10982E090E0C80ED91EF70130
:100D90008485B601A5010E945A0A09C061E070E08D
:100DA00080E090E00E94221CC7010E9498058823E1
:100DB00021F484E0F701848708C0C7010E949805E8
:100DC000873161F721E030E002C020E030E0C90166
:100DD000DF91CF911F910F91FF90EF90DF90CF9017
:100DE000BF90AF9008956F927F928F929F92AF9233
:100DF000BF92CF92DF92EF92FF920F931F93DF93F8
:100E0000CF93CDB7DEB7E5970FB6F894DEBF0FBE30
:100E1000CDBF4C015B013A0193E1E92EF12CEC0EC0
:100E2000FD1EC7010E942C19CE014B960E949F08FF
:100E30006E010894C11CD11CC6010E942C198E01A0
:100E4000095F1F4FC80160EB72E00E947A04C7017E
:100E5000B8010E948B13C701B501A6010E940A16B2
:100E60009C0181309105C9F4D401ED91FC91048479
:100E7000F585E02D87E992E09E878D878B819C81A7
:100E8000AD81BE818F87988BA98BBA8BC401BE01BF
:100E9000635F7F4FA30109959C01C901E5960FB6D9
:100EA000F894DEBF0FBECDBFCF91DF911F910F91A0
:100EB000FF90EF90DF90CF90BF90AF909F908F907A
:100EC0007F906F900895DC01ED91FC91008CF18D85
:100ED000E02D09950895DB01FC0127E932E031831B
:100EE000208351962D913D914D915C915497228391
:100EF0003383448355830895FC0185899689089539
:100F0000FC01818D928D0895DF93CF930F92CDB721
:100F1000DEB7FC016983A081B18112962D913C91CD
:100F20001397BE016F5F7F4F41E050E0F9010995D3
:100F30000F90CF91DF910895CF93DF93EC0107C01D
:100F4000E881F9810680F781E02DCE010995898D30
:100F50009A8D892BA9F7DF91CF9108950F938EE297
:100F600093E060E040E020E000E00E94B1180F91C3
:100F70000895DF93CF930F92CDB7DEB7FC01818D3B
:100F8000928D892B19F42FEF3FEF09C08485BE01A4
:100F90006F5F7F4F0E94170B8981282F30E0C901B6
:100FA0000F90CF91DF910895CF93DF93EC019A01D9
:100FB000498D5A8D41155105A1F02417350710F0C0
:100FC0008C8502C08C85A9010E94260B9C011816F5
:100FD00019063CF4898D9A8D821B930B9A8F898F09
:100FE00002C02FEF3FEFC901DF91CF9108950F931A
:100FF0001F93DF93CF930F92CDB7DEB78C01FC0127
:10100000818D928D892BA9F08485BE016F5F7F4F02
:1010100041E050E00E94260B1816190654F4F8011E
:10102000818D928D0197928F818F8981282F30E059
:1010300002C02FEF3FEFC9010F90CF91DF911F91B9
:101040000F910895EF92FF920F931F93DF93CF9329
:10105000CDB7DEB728970FB6F894DEBF0FBECDBF71
:101060008C01DC01ED91FC910284F385E02D099562
:1010700086E393E0F80164850E94540C892B19F4EF
:1010800020E030E025C0D8011C968C917E010894A8
:10109000E11CF11CB70148E050E00E94260B9C01C6
:1010A00018161906ACF4C8010F96B7010E940E1964
:1010B0009D8180E02E81820F911DF801968B858B9A
:1010C0009F8180E02885820F911D928F818F9C01E6
:1010D000C90128960FB6F894DEBF0FBECDBFCF91E1
:1010E000DF911F910F91FF90EF9008950F931F9341
:1010F0008C01FB019A01DC0157966D917C91589708
:101100001C968C91AF010E94900A9C01F80187897E
:10111000908D820F931F908F878BC9011F910F9124
:101120000895FC0184850E9490090895FC01108EA9
:10113000178A6E5F7F4F84850E94340A0895FC01F0
:101140001382128288EE93E0A0E0B0E0848395835E
:10115000A683B78383E692E09183808384E08487CB
:10116000CF010F960E942C1908956F927F928F9253
:101170009F92AF92BF92CF92DF92EF92FF920F9326
:101180001F93DF93CF93CDB7DEB7E5970FB6F894F3
:10119000DEBF0FBECDBF4C015B013A0183E1E82EFB
:1011A000F12CEC0EFD1EC7010E942C19CE014B96AE
:1011B0000E949F086E010894C11CD11CC6010E94A8
:1011C0002C198E01095F1F4FC80160EB72E00E946D
:1011D0007A04C701B8010E948B13C701B501A601AB
:1011E0000E940A169C0181309105C9F4D401ED9149
:1011F000FC910088F189E02D87E992E09E878D8738
:101200008B819C81AD81BE818F87988BA98BBA8B96
:10121000C401BE01635F7F4FA30109959C01C90111
:10122000E5960FB6F894DEBF0FBECDBFCF91DF912C
:101230001F910F91FF90EF90DF90CF90BF90AF90F4
:101240009F908F907F906F900895CF93DF93EC01E4
:101250008C85843061F00E94BC09EC85F0E0EE0FD3
:10126000FF1FE855FD4F1182108284E08C87DF91CB
:10127000CF910895CF92DF92EF92FF920F931F9339
:10128000CF93DF937C016B01FC018485843019F5D9
:10129000C0E0D0E003E014E0C8010E94A70B88235F
:1012A00011F0883119F4F701C48706C02196005067
:1012B0001F4FC430D10581F7F7018485843059F080
:1012C000D686C586128E118E62E0A60120E00E94AD
:1012D000F10981E001C080E0DF91CF911F910F9172
:1012E000FF90EF90DF90CF900895682F86E393E012
:1012F00048E050E00E94500D089590E00496982F29
:101300008827860F971F0E94A70B089590E00496E8
:10131000982F8827860F971F642F0E94660B0895C9
:101320001F93182F86E393E0612F40E250E00E9464
:10133000500D10C0812F62E070E00E947D0983FF94
:1013400009C0812F62E070E048E10E94860920E038
:1013500030E00FC0812F62E070E00E947D0984FFC1
:10136000E9CF812F62E070E040E10E94860921E030
:1013700030E0C9011F9108951F93182F86E393E071
:10138000612F40E150E00E94500D812F62E070E03B
:101390004FEF0E9486091F9108950F931F93182FF6
:1013A000062F472F60E170E00E948609812F61E1DE
:1013B00070E0402F0E9486091F910F9108950F93AE
:1013C0001F93182F062F472F64E070E00E948609B4
:1013D000812F65E070E0402F0E9486091F910F91D8
:1013E0000895FF920F931F93CF93DF93082FF62E4C
:1013F000EA01122F862F8150853010F080E024C042
:10140000802F0E94BC091F29802F60E070E0412FCF
:101410000E948609209719F0802FBE010BC06091B1
:101420003403709135036F5F7F4F70933503609382
:101430003403802F0E94DF0986E393E0602F41E0B0
:1014400050E00E94500D81E0DF91CF911F910F91EC
:10145000FF90089590E0982F8827845F9B4F44E089
:1014600050E00E94800B08951F93CF93DF93182FB5
:10147000FB01EA018081882349F48181882331F4CA
:101480008281882319F48381882369F0209759F099
:10149000812FBF010E942A0A812FBE010E94CD091F
:1014A00021E030E002C020E030E0C901DF91CF91BF
:1014B0001F9108951F93CF93DF93182FFB01EA012B
:1014C00080818F3F51F481818F3F91F482818F3FE2
:1014D00079F483818F3F61F41EC0882349F48181B0
:1014E000882331F48281882319F48381882399F039
:1014F000209789F0812FBF010E942A0A812FBE0107
:101500000E94CD0986E393E0612F44E050E00E9401
:10151000500D81E001C080E0DF91CF911F910895CF
:10152000AF92BF92DF92EF92FF920F931F93CF93F0
:10153000DF93D82EEB015A01890186E393E06D2DEC
:101540000E94870C8017910710F0780106C086E38F
:1015500093E06D2D0E94870C7C0186E393E06D2D56
:10156000AE01950187010E94C00BC701DF91CF91A9
:101570001F910F91FF90EF90DF90BF90AF90089573
:10158000CF92DF92EF92FF921F93CF93DF93182FAA
:101590006B01EA0188E04130580710F0C0E0D8E064
:1015A00086E393E0612F0E94870C7C01812F63E02A
:1015B00070E00E947D09873129F08C3119F0C0E07C
:1015C000D0E003C0EC16FD0658F386E393E0612FEC
:1015D000A6019E010E94310C86E393E0612F40E258
:1015E00050E00E94500D0DC0812F63E070E00E941A
:1015F0007D09882331F4812F0E94BC09C0E0D0E02E
:101600000DC0812F62E070E00E947D0984FFECCF65
:10161000812F62E070E040E10E948609CE01DF91F7
:10162000CF911F91FF90EF90DF90CF9008950F938F
:10163000282FAB0186E393E0622F21E030E001E048
:101640000E94050D81E090E00F910895CF92DF9206
:10165000FF920F931F93CF93DF93F82E6B018A01B4
:1016600086E393E06F2D0E94540CEC01009761F427
:101670008F2D63E070E00E947D098431D9F08823CA
:10168000C9F08C31B9F01FC0081719070CF4E80134
:101690001C161D067CF486E393E06F2DA6019E01C7
:1016A00000E00E94050D86E393E06F2D40E450E0DA
:1016B0000E94500DCE01DF91CF911F910F91FF90AD
:1016C000DF90CF900895CFEFDFEFF4CF282F2A9847
:1016D00080EF8EBD0DB407FEFDCF8EB59EBD0DB45F
:1016E00007FEFDCF8EB52EBD0DB407FEFDCF8EB526
:1016F0006EBD0DB407FEFDCF8EB52A9A81E0089528
:10170000DC0120E030E090EF1DC02A989EBD0DB4B2
:1017100007FEFDCF8EB5BEBD0DB407FEFDCF8EB565
:10172000AEBD0DB407FEFDCF8EB5FB01E20FF31F7A
:1017300080818EBD0DB407FEFDCF11968EB52A9A1D
:101740002F5F3F4F2417350700F3CA010895282F54
:101750002A988FE08EBD0DB407FEFDCF8EB59EBDDD
:101760000DB407FEFDCF8EB52EBD0DB407FEFDCF27
:101770008EB51EBC0DB407FEFDCF8EB52A9A089516
:101780007F928F929F92AF92BF92CF92DF92EF9211
:10179000FF920F931F93CF93DF936C01762E7A0104
:1017A00049015801862F64E270E00E947D09182FDC
:1017B000872D65E270E00E947D09C82FD0E0912F4F
:1017C00080E0C82BD92BCE0DDF1DAE015770872DC1
:1017D00090E0880F991FC80ED91EF6012081318133
:1017E000240F351FCA018A0D9B1D8150984098F027
:1017F00000E018E0041B150BC901B401A8010E9408
:10180000800BA501401B510BF60180819181080DD1
:10181000191DB80103C0C901B401A5010E94800BC4
:101820007E01EA0CFB1C072D10E00C5F1F4F102FF0
:101830000027C80184966F2D0E94660BC80185960B
:101840006E2D0E94660BDF91CF911F910F91FF903B
:10185000EF90DF90CF90BF90AF909F908F907F9050
:1018600008950F931F93FA01890140E050E09F0112
:101870000E94C00B1F910F9108950F931F93182F73
:1018800066E270E00E947D09082F812F67E270E018
:101890000E947D09502F40E0282F30E0242B352B6B
:1018A000C9011F910F910895FF920F931F93CF933A
:1018B000DF93F62EC0E0D0E08F2D0E943D0C8C010E
:1018C000009721F08F2D0E943D0CEC01C017D1072D
:1018D00099F7CE01DF91CF911F910F91FF9008955D
:1018E0000F931F93182F60E270E00E947D09082F6C
:1018F000812F61E270E00E947D09502F40E0282F87
:1019000030E0242B352BC9011F910F910895FF92D0
:101910000F931F93CF93DF93F62EC0E0D0E08F2D6F
:101920000E94700C8C01009721F08F2D0E94700C8A
:10193000EC01C017D10799F7CE01DF91CF911F912C
:101940000F91FF900895DC0120E030E09FE01DC082
:101950002A989EBD0DB407FEFDCF8EB5BEBD0DB459
:1019600007FEFDCF8EB5AEBD0DB407FEFDCF8EB523
:101970001EBC0DB407FEFDCF11968EB5FB01E20F24
:10198000F31F80832A9A2F5F3F4F2417350700F3F8
:10199000CA010895CF92DF92EF92FF920F931F93A7
:1019A000CF93DF93690178015770C62FD0E024965A
:1019B000CC0FDD1FC80FD91F28813981240F351F97
:1019C000C801840F951F8150984088F000E018E00E
:1019D000041B150BC901B601A8010E94A30CE01A53
:1019E000F10A888199810C0D1D1DB80102C0C90141
:1019F000B601A7010E94A30CDF91CF911F910F9117
:101A0000FF90EF90DF90CF9008958F929F92AF92CA
:101A1000BF92CF92DF92EF92FF920F931F93CF93DB
:101A2000DF937C01A62E6A014901B02E862F68E261
:101A300070E00E947D09182F8A2D69E270E00E94F3
:101A40007D09C82FD0E0912F80E0C82BD92BC7018A
:101A50006A2DAE01960184010E94CA0CBB2099F444
:101A60007E01E80CF91C0A2D10E00C5F1F4F102FAF
:101A70000027C80188966F2D0E94660BC8018996C1
:101A80006E2D0E94660BDF91CF911F910F91FF90F9
:101A9000EF90DF90CF90BF90AF909F908F90089580
:101AA0001F93162F962F80E08F5F9B4F642F0E940D
:101AB000660B812F61E070E00E947D098823C9F7E1
:101AC0001F9108950F931F93182F092F6CE271E057
:101AD00080E090E00E94221C0E94940D229A80E0F7
:101AE00090E060E80E94660B8BE190E065E50E9463
:101AF000660B8AE190E065E50E94660B212F302F8E
:101B0000C901FC0180E090E4918380838050904E75
:101B10009187808780509841329620E680309207E6
:101B200099F71F910F9108958AE061E00E94EF1CE0
:101B30008AE061E00E94831C8CB580618CBD8CB50D
:101B400080648CBD8DE061E00E94831C8BE061E0CD
:101B50000E94831C0895FB0180E38083842F82957B
:101B60008F704F704A3014F4405D01C0495C41836E
:101B70003197882311F0482FF1CF08950F9386E411
:101B800093E060E040E020E000E00E94B1180F9197
:101B900008950F931F938C01625E7F4F0E941B1963
:101BA000C8011F910F9108950F931F938C016A5ED6
:101BB0007F4F0E941B19C8011F910F9108950F9329
:101BC0001F938C016E5E7F4F0E941B19C8011F91ED
:101BD0000F9108950F931F938C01625F7F4F0E94B6
:101BE0001B19C8011F910F9108952F923F924F9298
:101BF0005F926F927F928F929F92AF92BF92CF929D
:101C0000DF92EF92FF920F931F93DF93CF93CDB7A5
:101C1000DEB7E8970FB6F894DEBF0FBECDBF5C010C
:101C20003A014B0129010E94EE1B7B018C01F7E474
:101C3000CF2ED12CCA0CDB1C14C00E94EE1B6E19D7
:101C40007F09800B910B661677068806990618F4B3
:101C500077247A941AC262E370E080E090E00E94F8
:101C6000221CC6010E9422081816190634F7C60164
:101C7000BE01635F7F4F42E250E00E94D4078D8532
:101C8000823009F0FEC12CE530E0A20EB31EF50152
:101C90008081918124EA3FEFA20EB31E8334910527
:101CA00009F0EFC129893A894B895C89E52EFF2427
:101CB00000271127B22FAA2799278827E82AF92A6F
:101CC0000A2B1B2BB42FA32F922F88278070907084
:101CD000B070E82AF92A0A2B1B2B232F342F452F0B
:101CE0005527207040705070E22AF32A042B152BE0
:101CF000F201E082F18202831383B501685F7F4FB6
:101D0000CE01899646E050E00E942402009799F4A3
:101D1000F50180819181A281B381E816F9060A0755
:101D20001B0748F084819581A681B7818E159F0598
:101D3000A007B10728F4C6010E949C077724A5C11B
:101D40008D8D9E8DAF8DB8A1F50186879787A08B6D
:101D5000B18B00E010E0C6010E94F7070F5F1F4F34
:101D60000E3C1105C1F795012E5E3F4F38AF2FABEA
:101D7000C50146969EAB8DABF5017E96FCABEBABF9
:101D80008AE1882E912C8A0C9B1C95012A5D3F4F7D
:101D90003AAB29ABC5018A9698AB8FA702E2202EF9
:101DA000312C2A0C3B1C772418E5412E512C4A0C6F
:101DB0005B1C5FC1C6010E94F7078333910509F4DC
:101DC00014C1843391058CF48130910569F182301E
:101DD000910524F4892B09F44CC140C1833091054D
:101DE00051F1069709F03AC142C08A33910509F4CE
:101DF00090C08B3391053CF48533910569F0C6970B
:101E000009F02CC150C08B33910509F4B8C08F3F45
:101E1000910509F023C12DC1C6010E94F707C60133
:101E20000E94F707782E25C1C6010E94F707C60158
:101E30006FA978AD62C0C6010E94F707182FC601CE
:101E40006DA97EA944E050E00E94D407EE24FF244F
:101E5000012F10E00450104006C0C6010E94F70791
:101E60000894E11CF11CE016F106BCF302C1C601A6
:101E70000E94F707182FC6016BA97CA944E050E027
:101E80000E94D407EE24FF24012F10E004501040DC
:101E900006C0C6010E94F7070894E11CF11CE01679
:101EA000F106BCF3E6C0C6010E94F707182FF40143
:101EB00080819181A281B3810097A105B105D9F0FC
:101EC000CE010196B4010E941B1927E932E0388740
:101ED0002F83F201208131814281538129873A8702
:101EE0004B875C878B819C81AD81BE818217930774
:101EF000A407B50759F4C601B40144E050E00E94BC
:101F0000D407B7C0C6010E94F70711501123D1F7BB
:101F1000B0C0C6010E94F707C60169A97AA944E0CA
:101F200050E00E94D407F50126A137A140A551A594
:101F3000E52EFF2400271127B22FAA2799278827EB
:101F4000E82AF92A0A2B1B2BB42FA32F922F8827BC
:101F500080709070B070E82AF92A0A2B1B2B232F6F
:101F6000342F452F5527207040705070E22AF32AF5
:101F7000042B152BE6A2F7A200A711A77AC0C60171
:101F80000E94F707C6016FA578A944E050E00E94BF
:101F9000D407F50122A533A544A555A5E52EFF24B8
:101FA00000271127B22FAA2799278827E82AF92A7C
:101FB0000A2B1B2BB42FA32F922F88278070907091
:101FC000B070E82AF92A0A2B1B2B232F342F452F18
:101FD0005527207040705070E22AF32A042B152BED
:101FE000E2A6F3A604A715A744C0C6010E94F707FE
:101FF000C601B10144E050E00E94D407F50122A1DE
:1020000033A144A155A1E52EFF2400271127B22FAB
:10201000AA2799278827E82AF92A0A2B1B2BB42FED
:10202000A32F922F882780709070B070E82AF92A29
:102030000A2B1B2B232F342F452F55272070407040
:102040005070E22AF32A042B152BE2A2F3A204A378
:1020500015A3E6A6F7A600AB11AB0BC0C6010E9404
:10206000F707182F04C0C6010E94F707115011236B
:10207000D1F7C6010E948007181619060CF49ACEF3
:1020800001C07724C6010E949C07872DE8960FB6F1
:10209000F894DEBF0FBECDBFCF91DF911F910F919E
:1020A000FF90EF90DF90CF90BF90AF909F908F9078
:1020B0007F906F905F904F903F902F9008950E9675
:1020C000FC0184E1DF011D928A95E9F708954F92A2
:1020D0005F926F927F928F929F92AF92BF92CF92B8
:1020E000DF92EF92FF920F931F93DF93CF93CDB7C1
:1020F000DEB7E2970FB6F894DEBF0FBECDBF6C011E
:10210000462E3A01F3E18F2E912C8C0E9D1EE0E2BB
:102110005E2EF401252D11922A95E9F7CE0107963E
:102120006FEF4FEF2FEF0FEF0E94B11877E4A72E5C
:10213000B12CAC0CBD1C87E992E09E878D87898508
:102140009A85AB85BC858F87988BA98BBA8BC50187
:10215000BE01635F7F4F43E450E00E9496088F5FAB
:102160009F4F09F4F3C081E08B8B8C8B86E08D8BC5
:102170001E8AF6012481358146815781E52EFF2490
:1021800000271127B22FAA2799278827E82AF92A9A
:102190000A2B1B2BB42FA32F922F882780709070AF
:1021A000B070E82AF92A0A2B1B2B232F342F452F36
:1021B0005527207040705070E22AF32A042B152B0B
:1021C000EB82FC820D831E83EF8AF88E098F1A8FB3
:1021D0007B8E6C8E80E890E09A8389839E8F8D8FB2
:1021E000C501B4014CE150E00E947608F40111925F
:1021F0005A94E9F7A8E06A2E712C6C0C7D1CD4016E
:10220000F30186E001900D928150E1F78E010D5EA1
:102210001F4FC501B80140E150E00E94760880E2FE
:10222000F80111928A95E9F7EE24FF24902E012FF0
:10223000C501692D702F40E250E00E947608089495
:10224000E11CF11CF6E0EF16F10491F793E69B8B8D
:1022500082E88C8B83E58D8B9E8B85E38F8B91E061
:10226000988F498E8DE38A8F87E08B8F9C8FDE015C
:102270005D96F30186E001900D928150E1F78CE0CC
:102280008BA38CA38E010D5E1F4FCE0185966CE053
:1022900072E00E943102C601BE01655D7F4FF6010A
:1022A00043850E94AB0DC601BE01635D7F4FF60101
:1022B00044850E94AB0DC601BE01615D7F4FF601F2
:1022C00045850E94AB0DC501B8014EE150E00E946A
:1022D0007608F3E04F16F1F482E38B8B94E09C8B4D
:1022E000F60186858D8B87858E8B80898F8B818982
:1022F000888F86E3898F9A8F828D8B8F838D8C8FC9
:10230000848D8D8F858D8E8FC501B8014CE050E096
:102310000E94760887E38B8B96E09C8B81E08D8B07
:1023200083E08E8B9F8B8FE0888F8AE3898F8BE38E
:102330008A8F8FEF8B8FC501BE016D5E7F4F49E0A5
:1023400050E00E947608C5010E949108E2960FB6FF
:10235000F894DEBF0FBECDBFCF91DF911F910F91DB
:10236000FF90EF90DF90CF90BF90AF909F908F90B5
:102370007F906F905F904F9008952F923F924F9271
:102380005F926F927F928F929F92AF92BF92CF9205
:10239000DF92EF92FF920F931F93DF93CF9300D0C2
:1023A00000D0CDB7DEB78C0161E070E080E090E056
:1023B00020ED37E040E050E00E94441DD801149623
:1023C0006C93149715967C93159716968C93169785
:1023D00017969C9317976C9311967C93119712966E
:1023E0008C93129713969C9377E4472E512C400EB2
:1023F000511EC2010E942509C20164E470E00E94DE
:102400003A09882319F46624772422C10E94EE1B1E
:102410004B015C016624772466E4C62ED12CC00EE5
:10242000D11E5EE3252E312C200E311E42E0E42E1B
:10243000FBC0882309F5F80184819581A681B781C5
:102440000196A11DB11D84839583A683B7830E9445
:10245000EE1B681979098A099B0928EE33E040E0F0
:1024600050E00E942020C80161E0A9010E9467108D
:1024700081E0D6018C93C2C0843001F5F8018481DB
:102480009581A681B7810196A11DB11D8483958395
:10249000A683B7830E94EE1B681979098A099B09F4
:1024A00028EE33E040E050E00E942020C80163E0C5
:1024B000A9010E946710D601EC92A0C0813069F595
:1024C000F1014081518162817381C8019E012F5FBA
:1024D0003F4F0E94F50DF82EF2E08F1709F089C0EA
:1024E00089819A81AB81BC81F80184839583A6831D
:1024F000B7830E94EE1B681979098A099B0928EEA7
:1025000033E040E050E00E942020C80163E0A901D0
:102510000E946710D601FC9271C0823009F06EC033
:10252000F1014081518162817381C8019E012F5F59
:102530003F4F0E94F50DF82EF5E08F1709F053C0BC
:10254000E3E0D601EC93F80182A193A1A4A1B5A187
:102550000097A105B10541F484E893E0A0E0B0E064
:1025600082A393A3A4A3B5A3F80186A197A1A0A5D4
:10257000B1A50097A105B10561F482A193A1A4A121
:10258000B5A1B695A7959795879586A397A3A0A77C
:10259000B1A7F80182A593A5A4A5B5A50097A105AB
:1025A000B10561F486A197A1A0A5B1A5880F991FD7
:1025B000AA1FBB1F82A793A7A4A7B5A7F80186A14E
:1025C00097A1A0A5B1A586A797A7A0ABB1AB82A5FF
:1025D00093A5A4A5B5A582AB93ABA4ABB5ABA1E085
:1025E0006A2E712C0BC0F6E08F1719F4D6011C92DD
:1025F00005C0BFEFFB1611F4F6011082F1E06F1673
:10260000710491F00E94EE1B681979098A099B09EF
:10261000D801DA962D913D914D915C91DD97261769
:1026200037074807590728F0F6018081833009F001
:1026300000CFC2010E942509F80184819581A681FD
:10264000B7810196A11DB11D84839583A683B783AD
:10265000C3010F900F900F900F90CF91DF911F91BA
:102660000F91FF90EF90DF90CF90BF90AF909F9031
:102670008F907F906F905F904F903F902F90089534
:10268000CF92DF92EF92FF920F931F93CF93DF933E
:10269000EC01D62EC72E1AA21BA21CA21DA21EA29E
:1026A0001FA218A619A61AA61BA61CA61DA61EAA1E
:1026B0001FAA18AE19AE2AAF3BAF4CAF5DAFEE9676
:1026C000E882F9820A831B83EE978E01085F1F4F11
:1026D00086E0F80111928A95E9F7CE010E945F1019
:1026E000D8012D2D3C2DC901FC0186E001900D92F1
:1026F0008150E1F7CA5BDF4F1882C654D040CE014B
:102700000E94BD11DF91CF911F910F91FF90EF902B
:10271000DF90CF9008959C01FB0182819381A48179
:10272000B581F90182839383A483B58317821682CE
:102730000895CF93DF93FB0101C0319680818823F8
:10274000E1F7EB01A0E0B0E020E030E021C06E3224
:1027500061F42F3F310509F07CF5FA01EA0FFB1F08
:102760002283119620E030E012C0C901E3E0880F17
:10277000991FEA95E1F7220F331F820F931F262F2F
:10278000332727FD309520533040280F391F2196DD
:102790006881662319F0A430B105CCF22F3F3105D2
:1027A00009F054F4A430B1053CF4A40FB51F1296FF
:1027B0002C9321E030E002C020E030E0C901DF913D
:1027C000CF9108950F938CE493E060E040E020E027
:1027D00000E00E94B1180F9108952F923F924F92FE
:1027E0005F926F927F928F929F92AF92BF92CF92A1
:1027F000DF92EF92FF920F931F93DF93CF93CDB7AA
:10280000DEB769970FB6F894DEBF0FBECDBF4C019F
:102810008B011A010E94EE1B2B013C01F8E0EF2E08
:10282000F12CE80CF91C5801CC24DD2414C00E94C2
:10283000EE1B6419750986099709A616B706C8061E
:10284000D90618F42FEF3FEF0BC162E370E080E090
:1028500090E00E94221CC7010E9422081816190647
:1028600034F7F4012281338144815581818D928D29
:10287000A38DB48D8A879B87AC87BD8728173907BE
:102880004A075B0709F0EAC0858D968DC59709F068
:10289000E5C000C18E01025F1F4FC701B8014CE0C7
:1028A00050E00E94D407F801528143815B834A8340
:1028B000F401268137818E859F852817390711F409
:1028C00057FD06C0C7010E949C072CEF3FEFC8C010
:1028D0004F705270452B31F0C7010E949C072BEFBF
:1028E0003FEFBEC0F801768067806114710441F04B
:1028F000AA24BB2448012E010894411C511C28C065
:10290000C7010E949C072AEF3FEFAAC0C701B2018E
:1029100041E050E00E94D4078981882321F408C057
:10292000C7010E94F7078981815089838F5FC1F7B2
:102930008981882359F700E010E0C7010E94F7075A
:102940000F5F1F4F04301105C1F70894A11CB11C83
:10295000F401D480C580AC14BD04C0F244245524D5
:10296000C701BE016F5F7F4F41E050E00E94D40776
:102970009981892F807C61F4992321F40DC0C701CE
:102980000E94F7078981815089838F5FC1F704C056
:10299000C7010E94F70719828981882309F7C701B7
:1029A000BE016C5F7F4F42E050E00E94D407C70138
:1029B000BE016A5F7F4F42E050E00E94D40700E012
:1029C00010E0C7010E94F7070F5F1F4F0430110589
:1029D000C1F7C701BE016E5F7F4F42E050E00E9429
:1029E000D407DC80CD80F1E0CF16D10419F5BE808C
:1029F000AF8081E0A816B104E9F49A818B81049735
:102A000031F0C7010E949C0727EF3FEF29C0E2E0A9
:102A1000F0E02E0E3F1EC701B10144E050E00E94DD
:102A2000D40721E030E01CC0C7010E94F7070F5F08
:102A30001F4F02C000E010E09A808B800815190536
:102A400098F30894411C511C4614570408F488CF8D
:102A5000C7010E949C0726EF3FEF02C02EEF3FEF19
:102A6000C90169960FB6F894DEBF0FBECDBFCF91F6
:102A7000DF911F910F91FF90EF90DF90CF90BF906B
:102A8000AF909F908F907F906F905F904F903F900E
:102A90002F90089587E992E099878887C7010E945F
:102AA00080070C970CF0F6CE2DEF3FEFD9CF6F9249
:102AB0007F928F929F92AF92BF92CF92DF92EF92CE
:102AC000FF920F931F93DF93CF9300D00F92CDB758
:102AD000DEB78C01F62EE72E0E94EE1BF8017783FD
:102AE0006683B8E0CB2ED12CC00ED11E0A5F1F4FDB
:102AF000C601B80142E050E00E94760881E090E013
:102B00009B838A83A2E08A2E912C8C0E9D1EC60187
:102B1000B40142E050E00E94760880E091E09B839F
:102B20008A83C601B40142E050E00E9476081B820D
:102B30001A82C601B40142E050E00E947608C60144
:102B4000B40142E050E00E947608C601B40142E0C0
:102B500050E00E9476082F2D3E2DC9018C017C018A
:102B60003E010894611C711C20C00894E11CF11CFA
:102B7000F7018081882311F08E32B9F75701A01A2E
:102B8000B10A1A141B0474F48E2D801B8983C601AC
:102B9000B30141E050E00E947608C601B801A501EA
:102BA0000E94760887010F5F1F4FF70180818823FD
:102BB00011F07801DDCF1982C601BE016F5F7F4F32
:102BC00041E050E00E94760800E011E01B830A8398
:102BD000C601B40142E050E00E9476081B830A83DC
:102BE000C601B40142E050E00E94760881E090E026
:102BF0000F900F900F90CF91DF911F910F91FF9049
:102C0000EF90DF90CF90BF90AF909F908F907F908C
:102C10006F9008958F929F92AF92BF92CF92DF9262
:102C2000EF92FF920F931F93DF93CF9300D000D0CA
:102C300000D0CDB7DEB76C017B014A010E94991329
:102C4000892B19F001E010E067C0F6012281338181
:102C50004481558180914E0390914F03A091500380
:102C6000B0915103281739074A075B0719F40EEF93
:102C70001FEF52C018E0A12EB12CAC0CBD1C0E945D
:102C8000EE1B9B01AC012F70307020503C4FC501F2
:102C9000B9010E943A09813019F000E010E03CC00F
:102CA00087E992E09A838983F60182819381A481E6
:102CB000B5818B839C83AD83BE83C501BE016F5FED
:102CC0007F4F45E350E00E9496088C01009709F180
:102CD000C601B7010E9457158C010097D1F0C501BC
:102CE0000E9491088C010097A1F0EE24FF24C601F8
:102CF00068E873E1A4010E94ED138C010894E11CC3
:102D0000F11CF3E0EF16F10421F08FEF0F3F1807ED
:102D100071F3C5010E942509C80126960FB6F894E3
:102D2000DEBF0FBECDBFCF91DF911F910F91FF90FE
:102D3000EF90DF90CF90BF90AF909F908F900895CD
:102D400008951F920F920FB60F9211242F933F9365
:102D50004F938F939F93EF93FF938091C00082FDD9
:102D60001DC04091C60020919203309193032F5FC4
:102D70003F4F2F73307080919403909195032817E3
:102D8000390771F0E0919203F0919303EE5AFC4FF2
:102D90004083309393032093920302C08091C60036
:102DA000FF91EF919F918F914F913F912F910F90B4
:102DB0000FBE0F901F901895E091E603F091E70386
:102DC000E05CFF4F8191919120813181821B930BB7
:102DD0008F739070892B11F00E94A01608951F9296
:102DE0000F920FB60F9211242F933F938F939F93BF
:102DF000EF93FF932091D6033091D7038091D803AE
:102E00009091D9032817390731F48091C1008F7D43
:102E10008093C10014C0E091D803F091D903EA5621
:102E2000FC4F20818091D8039091D90301968F7334
:102E300090709093D9038093D8032093C600FF919C
:102E4000EF919F918F913F912F910F900FBE0F9017
:102E50001F901895AF92BF92DF92EF92FF920F935F
:102E60001F93CF93DF93EC017A018B01DD24403077
:102E700081EE580780E0680780E0780711F0DD24D4
:102E8000D39491E0A92EB12CEC89FD89DD2069F065
:102E9000C50108A002C0880F991F0A94E2F7808339
:102EA00060E079E08DE390E005C0108260E874E8AE
:102EB0008EE190E0A80197010E942020215030402F
:102EC00040405040569547953795279580E12030F2
:102ED000380720F0DD2011F0DD24D6CFE889F9890C
:102EE0003083EA89FB89208319A2EE89FF8940811A
:102EF00021E030E0C9010C8C02C0880F991F0A94B0
:102F0000E2F7482B4083EE89FF894081C9010D8C8F
:102F100002C0880F991F0A94E2F7482B4083EE897C
:102F2000FF894081C9010E8C02C0880F991F0A9445
:102F3000E2F7482B4083EE89FF8980810F8C02C025
:102F4000220F331F0A94E2F7209528232083DF9174
:102F5000CF911F910F91FF90EF90DF90BF90AF90B6
:102F60000895DC011C96ED91FC911D97E05CFF4FEC
:102F70002191319180819181281B390B2F73307001
:102F8000C9010895DC011C96ED91FC911D97E05C50
:102F9000FF4F20813181E054F040DF01AE5BBF4F35
:102FA0008D919C9111972817390719F42FEF3FEF56
:102FB00007C08D919C91E80FF91F8081282F30E088
:102FC000C9010895DC011C96ED91FC911D97E05C10
:102FD000FF4F20813181E054F040DF01AE5BBF4FF5
:102FE0008D919C9111972817390719F42FEF3FEF16
:102FF00010C08D919C911197E80FF91F20818D9140
:103000009C91119701968F73907011969C938E935B
:1030100030E0C9010895DC0191968C919197882345
:1030200039F05496ED91FC915597808186FFF9CF48
:1030300091961C920895CF93DF93EC01EE85FF8566
:10304000E05CFF4F20813181E054F0402F5F3F4F23
:103050002F733070DF01AE5BBF4F8D919C91119744
:1030600028173907D1F3E05CFF4F80819181E0544C
:10307000F040E80FF91F6083EE85FF85E05CFF4FAD
:1030800031832083EE89FF89208181E090E00F8CDD
:1030900002C0880F991F0A94E2F7282B208381E051
:1030A00089A3EC89FD8980818064808381E090E040
:1030B000DF91CF9108951092DD031092DC0388EE2A
:1030C00093E0A0E0B0E08093DE039093DF03A09351
:1030D000E003B093E10387E892E09093DB038093F1
:1030E000DA0382E593E09093E7038093E60386E9B1
:1030F00093E09093E9038093E80385EC90E090934C
:10310000EB038093EA0384EC90E09093ED038093CB
:10311000EC0380EC90E09093EF038093EE0381EC5E
:1031200090E09093F1038093F00382EC90E0909311
:10313000F3038093F20386EC90E09093F503809381
:10314000F40384E08093F60383E08093F70387E041
:103150008093F80385E08093F90381E08093FA037C
:1031600008950F93FC0187E992E091838083628345
:103170004383248305830F91089587E992E0909318
:10318000FD038093FC031092FE031092FF03109244
:1031900000041092010408958F929F92AF92BF9203
:1031A000CF92DF92EF92FF920F931F93CF93DF9313
:1031B0004C016B017C01AA24BB24C0E0D0E0C60115
:1031C000F70162814AE050E00E94571A8C01C60163
:1031D0006EE20E948319080F191FA00EB11E2196DE
:1031E0000894E11CF11CC330D10549F7C601F40174
:1031F00065814AE050E00E94571A9501280F391F57
:10320000C901DF91CF911F910F91FF90EF90DF9057
:10321000CF90BF90AF909F908F9008959C01FB013D
:1032200080819181A281B381F90182839383A483F8
:10323000B583C90108959C01FB0187E992E0D9019A
:103240008D939C9380819181A281B381F9018283C6
:103250009383A483B5830895FC0187E992E0918369
:10326000808312821382148215820895CF93DF9394
:103270000E94481C0E948902CCEDD6E10E944302C4
:103280002097E1F30E94DC16F9CFFC0120E030E04A
:103290008081882311F421E030E0C9010895FC0108
:1032A00081E0808308950E946B0108950E94C1000F
:1032B0000895CF92DF92EF92FF920F931F93CF93D7
:1032C000DF937C016B018A01C0E0D0E00FC0D60122
:1032D0006D916D01D701ED91FC910190F081E02D90
:1032E000C7010995C80FD91F0150104001151105DC
:1032F00071F7CE01DF91CF911F910F91FF90EF9069
:10330000DF90CF900895DC01ED91FC910190F08168
:10331000E02D09950895EF92FF920F931F938C0172
:10332000DC01ED91FC910190F081E02D6DE00995BB
:103330007C01D801ED91FC910190F081E02DC80154
:103340006AE009959C012E0D3F1DC9011F910F9147
:10335000FF90EF900895CF93DF93EC016115710515
:1033600019F420E030E00FC0DB010D900020E9F7F8
:103370001197A61BB70BE881F9810280F381E02D3C
:10338000AD0109959C01C901DF91CF9108954F923C
:103390005F927F928F929F92AF92BF92CF92DF9275
:1033A000EF92FF920F931F93DF93CF93CDB7DEB7CA
:1033B000A1970FB6F894DEBF0FBECDBF2C01742EBF
:1033C000CB01223008F42AE019A231E2C32ED12C1D
:1033D000CC0EDD1E822E9924AA24BB24672D752FC6
:1033E000A50194010E94202079018A01C801B7013A
:1033F000A50194010E940120472D461B0894C10895
:10340000D1084A3014F4405D01C0495CF6014083A4
:10341000E114F1040105110521F07E2C5F2DC80196
:10342000DDCFC201B6010E94AB19A1960FB6F89488
:10343000DEBF0FBECDBFCF91DF911F910F91FF90E7
:10344000EF90DF90CF90BF90AF909F908F907F9044
:103450005F904F900895DC012115310541F4ED9105
:10346000FC910190F081E02D642F099508950E9450
:10347000C7190895CF92DF92EF92FF920F931F9397
:103480006C017B019A0100E010E0B801A7010E94E5
:103490002B1A8C01C6010E948B19080F191FC80135
:1034A0001F910F91FF90EF90DF90CF900895EF92D2
:1034B000FF920F931F939A01E62EFF2400E010E085
:1034C000B801A7010E942B1A1F910F91FF90EF9056
:1034D0000895CF92DF92EF92FF920F931F93CF93B5
:1034E000DF93EC016A017B012115310541F4E8818C
:1034F000F9810190F081E02D642F09951FC02A30D9
:103500003105D1F477FF17C0E881F9810190F0818E
:10351000E02D6DE209958C0144275527BA014C191D
:103520005D096E097F09CE012AE00E94C719980142
:10353000280F391F04C02AE00E94C7199C01C90145
:10354000DF91CF911F910F91FF90EF90DF90CF907F
:1035500008950E94AB1908957F928F929F92AF9227
:10356000BF92CF92DF92EF92FF920F931F93CF9370
:10357000DF934C017A018B01722ECB01BA01A801B5
:1035800097010E94C81F882321F0C40163E172E003
:1035900021C0C0E0D0E057016801E894D7F8C60127
:1035A000B5012FEF3FEF4FE75FE70E94C81F882369
:1035B00051F4C601B5012FEF3FEF4FE75FE70E94DF
:1035C000C71D181614F0C1E0D0E0219739F0C401EE
:1035D00067E172E00E94AB19EC0193C0C801B7012A
:1035E0002FEF3FEF4FE75FE40E94161F181654F0CD
:1035F000C801B7012FEF3FEF4FE75FEC0E94C71DF7
:10360000882324F4C4016BE172E0E4CFC801B70160
:1036100020E030E040E050E00E94C71D87FD03C07D
:10362000C0E0D0E00EC0D401ED91FC910190F0819A
:10363000E02DC4016DE20995EC0117FB109517F917
:10364000109520E030E040E05FE3DD240BC0CA01CC
:10365000B90120E030E040E251E40E94CB1D9B0123
:10366000AC01D394D71498F3C801B7010E94631D2D
:103670005B016C010E94381E7B018C01C401B80102
:10368000A7012AE030E00E942B1AC80FD91F77202B
:1036900039F0C4016FE172E00E94AB19C80FD91F65
:1036A000C801B7010E94641E9B01AC01C601B501AF
:1036B0000E94621D24C020E030E040E251E40E94FC
:1036C000651F7B018C010E94331E5B016C01CC24C1
:1036D000B7FCC094DC2CC401B601A5012AE030E09F
:1036E0000E94691AC80FD91FC601B5010E94661E43
:1036F0009B01AC01C801B7010E94621D7A9477203A
:10370000D1F6CE01DF91CF911F910F91FF90EF90F5
:10371000DF90CF90BF90AF909F908F907F90089553
:103720000E94AC1A0895EF92FF920F931F937C01B1
:103730000E94AB198C01C7010E948B19080F191F39
:10374000C8011F910F91FF90EF9008951F920F9263
:103750000FB60F9211242F933F938F939F93AF93A4
:10376000BF938091060490910704A0910804B09142
:10377000090430910A040196A11DB11D232F2D5F6C
:103780002D3720F02D570196A11DB11D20930A045D
:103790008093060490930704A0930804B09309044F
:1037A0008091020490910304A0910404B091050457
:1037B0000196A11DB11D8093020490930304A09370
:1037C0000404B0930504BF91AF919F918F913F91F5
:1037D0002F910F900FBE0F901F9018958FB7F894F0
:1037E0002091060430910704409108045091090487
:1037F0008FBFB901CA0108959FB7F89420910204C0
:1038000030910304409104045091050486B5A89BAF
:1038100006C08F3F21F02F5F3F4F4F4F5F4F9FBF3D
:10382000542F432F322F2227280F311D411D511DA8
:1038300082E0220F331F441F551F8A95D1F7B9012B
:10384000CA010895EF92FF920F931F93CF93DF93D6
:103850007B018C010E94FC1BEB010EC00E94FC1B33
:103860006C1B7D0B685E7340C8F30894E108F10897
:1038700001091109C851DC4FE114F10401051105DA
:1038800069F7DF91CF911F910F91FF90EF9008950D
:10389000789484B5826084BD84B5816084BD85B52B
:1038A000826085BD85B5816085BDEEE6F0E08081F2
:1038B00081608083E1E8F0E0108280818260808313
:1038C000808181608083E0E8F0E080818160808396
:1038D000E1EBF0E0808184608083E0EBF0E08081C8
:1038E00081608083EAE7F0E080818460808380816A
:1038F0008260808380818160808380818068808312
:103900001092C1000895CF93DF93482F50E0CA0171
:103910008C509F4FFC01349140525F4FFA018491CB
:10392000882369F190E0880F991FFC01EE53FF4F47
:10393000A591B491FC01E453FF4FC591D491662346
:1039400051F42FB7F8948C91932F909589238C93F1
:10395000888189230BC0623061F42FB7F8948C9171
:10396000932F909589238C938881832B88832FBFF5
:1039700006C09FB7F8948C91832B8C939FBFDF91E7
:10398000CF910895833071F0843028F48130A1F014
:10399000823021F514C08630B1F08730D1F0843008
:1039A000E9F404C0809180008F7703C0809180008B
:1039B0008F7D80938000089584B58F7702C084B591
:1039C0008F7D84BD08958091B0008F778093B00083
:1039D00008958091B0008F7D8093B0000895FF928C
:1039E0000F931F93F62E482F50E0CA01885F9E4F19
:1039F000FC012491CA018C509F4FFC01149140524C
:103A00005F4FFA0104910023C9F0222319F0822F9D
:103A10000E94C21CE02FF0E0EE0FFF1FE453FF4FA7
:103A2000A591B4919FB7F894FF2021F48C91109543
:103A3000812302C08C91812B8C939FBF1F910F918A
:103A4000FF900895EF92FF920F931F937B018C01DB
:103A5000611571058105910529F420E030E040E011
:103A600050E00BC00E941602A80197010E9442205C
:103A7000AC01CB01DA019C01AD01B901CA011F9172
:103A80000F91FF90EF900895EF92FF920F931F9385
:103A90007B018C01621773078407950764F4261B6A
:103AA000370B480B590BCA01B9010E94221DE60EC3
:103AB000F71E081F191FB701C8011F910F91FF9032
:103AC000EF9008955058BB27AA270ED075C166D134
:103AD00030F06BD120F031F49F3F11F41EF45BC144
:103AE0000EF4E095E7FB51C1E92F77D180F3BA17C7
:103AF000620773078407950718F071F49EF58FC16C
:103B00000EF4E0950B2EBA2FA02D0B01B9019001F8
:103B10000C01CA01A0011124FF27591B99F0593F3C
:103B200050F4503E68F11A16F040A22F232F342F84
:103B30004427585FF3CF469537952795A795F040D2
:103B40005395C9F77EF41F16BA0B620B730B840BE7
:103B5000BAF09150A1F0FF0FBB1F661F771F881F9F
:103B6000C2F70EC0BA0F621F731F841F48F48795F7
:103B700077956795B795F7959E3F08F0B3CF9395E6
:103B8000880F08F09927EE0F979587950895D9D05B
:103B900008F481E008950CD00FC107D140F0FED0A9
:103BA00030F021F45F3F19F0F0C0511139C1F3C07A
:103BB00014D198F39923C9F35523B1F3951B550BF1
:103BC000BB27AA2762177307840738F09F5F5F4FF0
:103BD000220F331F441FAA1FA9F333D00E2E3AF031
:103BE000E0E830D091505040E695001CCAF729D04B
:103BF000FE2F27D0660F771F881FBB1F261737079A
:103C00004807AB07B0E809F0BB0B802DBF01FF27C9
:103C100093585F4F2AF09E3F510568F0B6C000C12F
:103C20005F3FECF3983EDCF3869577956795B79503
:103C3000F7959F5FC9F7880F911D9695879597F91E
:103C40000895E1E0660F771F881FBB1F6217730797
:103C50008407BA0720F0621B730B840BBA0BEE1FAC
:103C600088F7E095089504D06894B111D9C00895FB
:103C7000BCD088F09F5790F0B92F9927B751A0F08A
:103C8000D1F0660F771F881F991F1AF0BA95C9F7F0
:103C900012C0B13081F0C3D0B1E00895C0C0672F29
:103CA000782F8827B85F39F0B93FCCF386957795A0
:103CB0006795B395D9F73EF4909580957095619589
:103CC0007F4F8F4F9F4F0895E89409C097FB3EF4B4
:103CD00090958095709561957F4F8F4F9F4F992359
:103CE000A9F0F92F96E9BB279395F69587957795D7
:103CF0006795B795F111F8CFFAF4BB0F11F460FF97
:103D00001BC06F5F7F4F8F4F9F4F16C0882311F0EE
:103D100096E911C0772321F09EE8872F762F05C002
:103D2000662371F096E8862F70E060E02AF09A959D
:103D3000660F771F881FDAF7880F9695879597F992
:103D40000895990F0008550FAA0BE0E8FEEF16162C
:103D50001706E807F907C0F012161306E407F5077F
:103D600098F0621B730B840B950B39F40A2661F0F3
:103D7000232B242B252B21F408950A2609F4A14096
:103D8000A6958FEF811D811D089597F99F6780E8A3
:103D900070E060E008959FEF80EC089500240A949D
:103DA0001616170618060906089500240A94121616
:103DB0001306140605060895092E0394000C11F449
:103DC000882352F0BB0F40F4BF2B11F460FF04C0F6
:103DD0006F5F7F4F8F4F9F4F089557FD9058440F4F
:103DE000551F59F05F3F71F04795880F97FB991F5A
:103DF00061F09F3F79F08795089512161306140617
:103E0000551FF2CF4695F1DF08C0161617061806A3
:103E1000991FF1CF86957105610508940895E8947E
:103E2000BB2766277727CB0197F908958ADF08F427
:103E30008FEF08950AD029ED3BE54EED5EE345C0D6
:103E40000EF0AAC0A8CF6894A0CFCFDFC8F3992303
:103E5000D1F3C6F3DF93CF931F930F93FF92C92F34
:103E6000DD2788232AF02197660F771F881FDAF74E
:103E700020E030E040E85FEB9FE3883920F0803EAF
:103E800030F021968F771FDEE8E6F0E003C01BDEFE
:103E9000E5E9F0E091D08B01BE01EC01FB2E6F57FC
:103EA00071097595771F880B990B10DF28E132E7B0
:103EB00041E35FE316D0AF2D9801AE01FF900F9163
:103EC0001F91CF91DF9110DE77CF0BD075CF66DFDA
:103ED00028F06BDF18F0952309F057CF5CCF112441
:103EE0009FCF7BDFA0F3959FD1F3950F50E0551F37
:103EF000629FF001729FBB27F00DB11D639FAA273F
:103F0000F00DB11DAA1F649F6627B00DA11D661F8D
:103F1000829F2227B00DA11D621F739FB00DA11DAE
:103F2000621F839FA00D611D221F749F3327A00D68
:103F3000611D231F849F600D211D822F762F6A2F04
:103F400011249F5750408AF0E1F088234AF0EE0F89
:103F5000FF1FBB1F661F771F881F91505040A9F796
:103F60009E3F510570F011CF5BCF5F3FECF3983E61
:103F7000DCF3869577956795B795F795E7959F5FFD
:103F8000C1F7FE2B880F911D9695879597F9089597
:103F9000D8DE880B990B08959F3F49F0915028F483
:103FA000869577956795B7959F5F80389F4F880F67
:103FB0009695879597F90895DF93CF931F930F9365
:103FC000FF92EF92DF927B018C01689405C0DA2E9C
:103FD000EF0187DFFE01E894A59125913591459188
:103FE0005591AEF3EF0180DDFE019701A801DA944F
:103FF00079F7DF90EF90FF900F911F91CF91DF91B4
:104000000895629FD001739FF001829FE00DF11D22
:10401000649FE00DF11D929FF00D839FF00D749F42
:10402000F00D659FF00D9927729FB00DE11DF91FEE
:10403000639FB00DE11DF91FBD01CF01112408954B
:10404000A1E21A2EAA1BBB1BFD010DC0AA1FBB1F9C
:10405000EE1FFF1FA217B307E407F50720F0A21B0E
:10406000B30BE40BF50B661F771F881F991F1A947B
:1040700069F760957095809590959B01AC01BD01A5
:10408000CF01089597FB092E05260ED057FD04D0C9
:10409000D7DF0AD0001C38F4509540953095219513
:1040A0003F4F4F4F5F4F0895F6F79095809570956D
:1040B00061957F4F8F4F9F4F0895EE0FFF1F059023
:1040C000F491E02D09942F923F924F925F926F925C
:1040D0007F928F929F92AF92BF92CF92DF92EF9298
:1040E000FF920F931F93CF93DF93CDB7DEB7CA1B19
:1040F000DB0B0FB6F894DEBF0FBECDBF09942A8844
:10410000398848885F846E847D848C849B84AA84EB
:10411000B984C884DF80EE80FD800C811B81AA8178
:10412000B981CE0FD11D0FB6F894DEBF0FBECDBF43
:08413000ED010895F894FFCFA2
:104138007465737400617070656E64207375636371
:1041480065737366756C6C7900617070656E642058
:104158006661696C65640044484350204F4B0044D5
:10416800484350204661696C003032396233383830
:104178003462393165346430306235313431353840
:1041880062613165326163353700303200504F5318
:1041980054202F6170692F56312F476174657761FC
:1041A800792F55706461746553656E736F72732FE0
:1041B8000020485454502F312E3100757365726BAE
:1041C80065793A2000486F73743A206F70656E2ED7
:1041D8006C6577656935302E636F6D005573657250
:1041E8002D4167656E743A20554E4F00436F6E74CB
:1041F800656E742D4C656E6774683A20006F706543
:104208006E2E6C6577656935302E636F6D00436F70
:104218006E6E656374696F6E3A20636C6F736500C8
:104228005B7B224E616D65223A2200222C22566168
:104238006C7565223A2200227D5D000057495A6E4E
:104248006574006E616E00696E66006F7666002E9A
:104258000020000F0400000100000039015A01ECA1
:104268005118C0000400000000BB025404DEADBEBB
:10427800EFFEED0000000056055F06510635060BFF
:10428800066E057D06F3063006C905A505850500F9
:10429800000000840776088007F707B9079C073AEB
:1042A8000925099608B50891082208D40763076B01
:1042B800077C07000000001B185919B117E217C244
:0A42C800170B1800000000CC1800CE
:00000001FF
